:100000000C9476000C949E000C949E000C949E0020
:100010000C949E000C949E000C949E000C949E00E8
:100020000C949E000C949E000C949E000C949E00D8
:100030000C949E000C949E000C949E000C949E00C8
:100040000C946E040C949E000C94DA040C94B4048A
:100050000C949E000C949E000C949E000C949E00A8
:100060000C949E000C949E000C9400000C940000D4
:100070000C9400000C9400000000000023002600F7
:1000800029002C0000000000240027002A002D0079
:1000900000000000250028002B002E0004040404AA
:1000A0000404040402020202020203030303030322
:1000B000050505050505050301020408102040801B
:1000C00001020408102001020408102002080104A3
:1000D0001040204000000008500201000003040707
:1000E00000000000000000000000D40811241FBE22
:1000F000CFEFD8E0DEBFCDBF23E0AAECB2E001C075
:100100001D92AD37B207E1F712E0A0E0B1E0EEECEE
:10011000F6E102C005900D92AA3CB107D9F710E0B4
:10012000C6E7D0E004C02197FE010E946D09C537E3
:10013000D107C9F70E940C050C94650B0C940000C4
:1001400081508B3088F5E82FF0E0E755FF4F0C9495
:100150006D09BE00C200B400BA00D400D400C500CE
:10016000CB00CF00D500D900809180008F7780939D
:1001700080000895809180008F7DF9CF84B58F77BE
:1001800084BD089584B58F7DFBCF8091B0008F77BB
:100190008093B00008958091B0008F7DF9CF809159
:1001A00090008F77809390000895809190008F7DCC
:1001B000F9CF80919000877FF5CF1F93CF93DF9386
:1001C000282F30E0F901EC52FF4F8491F901E854F7
:1001D000FF4FD491F901E456FF4FC491CC23A9F00D
:1001E000162F81110E94A000EC2FF0E0EE0FFF1FF0
:1001F000E057FF4FA591B4918FB7F894EC9111118E
:1002000008C0D095DE23DC938FBFDF91CF911F9183
:100210000895DE2BF8CFCF93DF93282F30E0F9013C
:10022000E854FF4F449124563F4FF9012491843004
:1002300011F583E08093A0002223D1F0822F90E07B
:10024000880F991FFC01EC57FF4FA591B491FC0159
:10025000E057FF4FC591D491611122C09FB7F89428
:100260008C91409584238C938881482348839FBF39
:10027000DF91CF9108959AEE980F923020F48FEF8E
:1002800084BF84BFD9CF8931B9F68091F0008260F4
:100290008EBB80E88093F0008EB38093F000CCCFCB
:1002A0008FB7F894EC914E2B4C938FBFE1CF3FB7B3
:1002B000F8948091D8029091D902A091DA02B0917D
:1002C000DB0226B5A89B05C02F3F19F00196A11DA2
:1002D000B11D3FBFBA2FA92F982F8827BC01CD0190
:1002E000620F711D811D911D660F771F881F991F59
:1002F00008958F929F92AF92BF92CF92DF92EF922A
:10030000FF924B015C010E9457016B017C010E942E
:1003100057016C197D098E099F09683E734081055C
:100320009105A8F321E0821A9108A108B10888EE8E
:10033000C80E83E0D81EE11CF11C81149104A104B5
:10034000B10429F7FF90EF90DF90CF90BF90AF906E
:100350009F908F900895AF92BF92CF92DF92EF92CD
:10036000FF920F931F93CF93DF936C017B018B015F
:10037000040F151FEB015E01AE18BF08C017D107AF
:1003800059F06991D601ED91FC910190F081E02D39
:10039000C6010995892B79F7C501DF91CF911F918E
:1003A0000F91FF90EF90DF90CF90BF90AF900895A6
:1003B000FC0144815581608171818CED92E00C9447
:1003C000AB01FC01538D448D252F30E0842F90E04C
:1003D000821B930B541710F0CF9608950197089540
:1003E000FC01918D828D981761F0A28DAE0FBF2F09
:1003F000B11D5D968C91928D9F5F9F73928F90E05F
:1004000008958FEF9FEF0895FC01918D828D9817CD
:1004100031F0828DE80FF11D858D90E008958FEF0A
:100420009FEF0895FC01918D228D892F90E0805CD3
:100430009F4F821B91098F73992708958CED92E04D
:100440000E94120221E0892B09F420E0822F0895F6
:1004500080E090E0892B29F00E941E0281110C940B
:1004600000000895FC01A48DA80FB92FB11DA35A57
:10047000BF4F2C91848D90E001968F739927848FC4
:10048000A689B7892C93A089B1898C9183708064E7
:100490008C93938D848D981306C00288F389E02D88
:1004A00080818F7D80830895EF92FF920F931F9339
:1004B000CF93DF93EC0181E0888F9B8D8C8D981317
:1004C0001AC0E889F989808185FF15C09FB7F89423
:1004D000EE89FF896083E889F9898081837080646F
:1004E00080839FBF81E090E0DF91CF911F910F91BA
:1004F000FF90EF900895F62E0B8D10E00F5F1F4FC9
:100500000F731127E02E8C8D8E110CC00FB607FCD7
:10051000FACFE889F989808185FFF5CFCE010E9465
:100520003202F1CFEB8DEC0FFD2FF11DE35AFF4F9F
:10053000F0829FB7F8940B8FEA89FB8980818062F3
:10054000CFCFCF93DF93EC01888D8823B9F0AA89B0
:10055000BB89E889F9898C9185FD03C0808186FD7E
:100560000DC00FB607FCF7CF8C9185FFF2CF8081CD
:1005700085FFEDCFCE010E943202E9CFDF91CF910E
:100580000895FC0101900020E9F73197AF01481B65
:10059000590BBC018CED92E00C94AB01CF93DF932F
:1005A0000E94D801EC0181EF91E00E94C1028C0F02
:1005B0009D1FDF91CF910895CF93DF930E94C102D9
:1005C000EC0181EF91E00E94C1028C0F9D1FDF9131
:1005D000CF9108950F931F93CF93DF93EC01888100
:1005E0009981009759F02A813B812617370730F00F
:1005F00081E0DF91CF911F910F9108958B016F5F83
:100600007F4F0E94980A009759F0998388831B8333
:100610000A832C813D81232B59F7FC011082E8CFFE
:1006200080E0E7CFEF92FF920F931F93CF93DF937A
:100630006115710541F480E0DF91CF911F910F9119
:10064000FF90EF90089541155105B1F07B01EC0149
:100650000C811D81040F151FB8010E94EA02882336
:1006600051F3288139818C819D81B701820F931FBD
:100670000E945E0B1D830C8381E0DECFCF93DF935E
:10068000EC0188819981009711F00E940F0A19826C
:1006900018821D821C821B821A82DF91CF910895DD
:1006A000CF93DF93EC01FB0101900020E9F7319734
:1006B000AF01461B570B0E941203811103C0CE01EC
:1006C0000E943E03CE01DF91CF910895CF93DF9337
:1006D000EC01FB0144815581608171810E9412030C
:1006E000811103C0CE010E943E03CE01DF91CF9164
:1006F0000895EF92FF920F931F93CF93DF93EC0136
:100700007B018A01BA010E94EA0281110BC0CE016D
:100710000E943E03CE01DF91CF911F910F91FF9078
:10072000EF9008951D830C83B701888199810E9401
:100730005E0BF0CFEF92FF920F931F93CF93DF9357
:10074000CDB7DEB762970FB6F894DEBF0FBECDBF50
:100750008C01CB01F8011182108213821282158262
:1007600014824AE09E012F5F3F4F7901B9010E9438
:100770000109F70101900020E9F73197AF014E1907
:100780005F09B701C8010E94790362960FB6F89419
:10079000DEBF0FBECDBFDF91CF911F910F91FF90B4
:1007A000EF900895CF93DF93EC01FB018617970735
:1007B00049F0608171816115710541F04481558175
:1007C0000E947903CE01DF91CF9108950E943E03EC
:1007D000F9CFFC01118210821382128215821482D9
:1007E000FB0101900020E9F73197AF01461B570B41
:1007F0000C947903FC0180819181009711F00C9495
:100800000F0A0895CF92DF92EF92FF920F931F93FA
:10081000CF93DF9300D000D000D0CDB7DEB78C01EE
:100820007B0163EF71E00E94E90398E0C92ED12CAF
:10083000E114F104B9F448E050E068E171E0C80166
:100840000E947903C80126960FB6F894DEBF0FBE4A
:10085000CDBFDF91CF911F910F91FF90EF90DF906F
:10086000CF9008951E141F04ECF46FE171E0E0FED8
:1008700002C061E271E0CE0101960E94E903B80175
:10088000CE0101960E946603BC01C8010E94D203FA
:10089000CE0101960E94FA03F594E79481E0C81A0C
:1008A000D108E0CFF12CE12CEC14FD045CF66FE1F3
:1008B00071E0CE0101960E94E903B801CE010196D4
:1008C0000E946603BC01C8010E94D203CE010196BA
:1008D0000E94FA038FEFE81AF80AE6CF1F920F92F0
:1008E0000FB60F9211242F933F938F939F93AF9343
:1008F000BF938091D4029091D502A091D602B0917D
:10090000D7023091D30220E4230F2D3728F023ECB7
:10091000230F0196A11DB11D2093D3028093D40211
:100920009093D502A093D602B093D7028091D802BB
:100930009091D902A091DA02B091DB020196A11D3B
:10094000B11D8093D8029093D902A093DA02B0939C
:10095000DB02BF91AF919F918F913F912F910F90AB
:100960000FBE0F901F9018951F920F920FB60F9207
:1009700011242F933F934F935F936F937F938F93A4
:100980009F93AF93BF93EF93FF938CED92E00E9400
:100990003202FF91EF91BF91AF919F918F917F9123
:1009A0006F915F914F913F912F910F900FBE0F90DC
:1009B0001F9018951F920F920FB60F9211242F932C
:1009C0008F939F93EF93FF93E091EC02F091ED02F0
:1009D0008081E091F202F091F30282FD1BC09081D0
:1009E0008091F5028F5F8F732091F602821741F09C
:1009F000E091F502F0E0E452FD4F958F8093F5020F
:100A0000FF91EF919F918F912F910F900FBE0F90BB
:100A10001F9018958081F4CFCF93DF93CDB7DEB7C9
:100A200068970FB6F894DEBF0FBECDBF8091F2007D
:100A300080618EBB80E88093F2009EB39093F200B9
:100A40008093610091E0909361009091F2009F7912
:100A50009EBB8093F2009EB39093F2009091F200BF
:100A60009B7F9EBB8093F2009EB39093F200809395
:100A7000610010926100789484B5826084BD84B571
:100A8000816084BD85B5826085BD85B5816085BD89
:100A900080916E00816080936E0010928100809141
:100AA00081008260809381008091810081608093C9
:100AB0008100809180008160809380008091B100EE
:100AC00084608093B1008091B00081608093B00019
:100AD000809191008260809391008091910081606B
:100AE000809391008091900081608093900080912C
:100AF0007A00846080937A0080917A008D7F809361
:100B00007A0080917A008E7F80937A0080917A00BB
:100B1000806880937A001092C1001092D2021092E5
:100B2000D10280E490E09093CB028093CA0280E8E7
:100B300090E00E9473098093CC029093CD02FC0157
:100B400080589F4F2FEF3FEF21933193E817F9071C
:100B5000D9F71092CF021092CE02E091EC02F09100
:100B6000ED0282E08083E091E802F091E90281E009
:100B70008083E091EA02F091EB0280EA8083109298
:100B8000F402E091F002F091F10286E08083E091BE
:100B9000EE02F091EF02808180618083E091EE02AD
:100BA000F091EF02808188608083E091EE02F09105
:100BB000EF02808180688083E091EE02F091EF0285
:100BC00080818F7D808360E177E280E090E00E9409
:100BD000790161E087E00E940B0161E084E00E94FE
:100BE0000B0161E086E00E940B0160E085E00E945D
:100BF0000B0160E08CE00E940B0161E08CE00E9440
:100C0000DD0060E177E280E090E00E94790181EF11
:100C100091E00E94C10283E291E00E94DC028BE23B
:100C200091E00E94DC026AE973E0CE0101960E9425
:100C30009A0361E070E0CE0107960E949A036FE488
:100C400071E0CE0143960E94E9031E861D86188A34
:100C50001F861A8A198ABE016D5E7F4FCE010D96DE
:100C60000E94D20361E671E0CE010D960E9450030E
:100C7000BE01695F7F4F0E9466036EE572E00E94CD
:100C80005003BE016F5F7F4F0E94660361EF71E00A
:100C90000E9450030E94CE02CE010D960E94FA03DC
:100CA000CE0143960E94FA03CE0107960E94FA03F2
:100CB000CE0101960E94FA036091CA027091CB02A4
:100CC000CE0101960E949A036BE671E0CE01079671
:100CD0000E94E903BE016F5F7F4FCE0107960E941D
:100CE000660361E871E00E9450030E94CE02CE01CB
:100CF00007960E94FA03CE0101960E94FA0386EA43
:100D000091E00E94DC0249ED842E40E0942E5DEBE0
:100D1000A52E50E0B52E61EA262E60E0362E70E05A
:100D2000E72E70E0F72E8091D1029091D2020196C9
:100D30009093D2028093D10260E087E00E94DD00B0
:100D400015E31A95F1F7000061E087E00E94DD00ED
:100D500085E38A95F1F7000061E086E00E94DD00FE
:100D600060E084E00E94DD001092D002E5E3EA95A5
:100D7000F1F70000D12CC12C712C61E086E00E94BB
:100D8000DD00F4018491F5016490F1015490552047
:100D900009F4AEC081110E94A000E52DF0E0EE0F35
:100DA000FF1FE858FF4FA591B4918C91682231E064
:100DB00009F430E0832F0C2C01C0880F0A94EAF765
:100DC000782A60E086E00E94DD00FFEFCF1ADF0A9C
:100DD00018E0C116D10489F67092D00285E38A9595
:100DE000F1F7000061E084E00E94DD0084EF91E013
:100DF0000E94DC026091D1027091D202CE01019674
:100E00000E949A0369E072E0CE0107960E94E9030E
:100E1000BE016F5F7F4FCE0107960E9466030E945E
:100E2000CE02CE0107960E94FA03CE0101960E94DF
:100E3000FA036091D00270E0CE0101960E94020494
:100E400068E172E0CE0107960E94E903BE016F5F80
:100E50007F4FCE0107960E9466030E94CE02CE010C
:100E600007960E94FA03CE0101960E94FA03609150
:100E7000D00270E0CE0101960E949A0365E272E012
:100E8000CE0107960E94E903BE016F5F7F4FCE013E
:100E900007960E9466030E94CE02CE0107960E942A
:100EA000FA03CE0101960E94FA038091CE0290913E
:100EB000CF024091CA025091CB0284179507A4F546
:100EC0002091D00230E0E091CC02F091CD02DF0120
:100ED00070E060E0712C6417750764F4CD90DD90CC
:100EE0002C153D0511F4772473946F5F7F4FF3CF7A
:100EF00080E061CF711053C170E060E06417750746
:100F00007CF4711009C0A081B181119629F431835C
:100F100020830196772473946F5F7F4F3296EECFD4
:100F20009093CF028093CE0260ED77E080E090E076
:100F30000E9479018091D1029091D202843691056C
:100F400009F021C181EF91E00E94C10286E392E0A5
:100F50000E94DC02F12CE12C8091CE029091CF0214
:100F6000E816F9060CF0D5C0C701880F991FE0916B
:100F7000CC02F091CD02E80FF91F008111818FEFB3
:100F8000E81AF80A0F3F100739F3C70101970997CC
:100F900010F5B701CE0107960E949A031A821982B2
:100FA0001C821B821E821D82BE01695F7F4FCE01A3
:100FB00001960E94D20360E672E0CE0101960E9483
:100FC00050030E94D801CE0101960E94FA03CE017F
:100FD00007960E94FA03C7010A978B35910510F511
:100FE000B701CE0107960E949A031A8219821C82C9
:100FF0001B821E821D82BE01695F7F4FCE0101965A
:101000000E94D20364E672E0CE0101960E94500372
:101010000E94D801CE0101960E94FA03CE010796E4
:101020000E94FA03F0E2FA95F1F70A30110500F593
:10103000B801CE0101960E949A036EE272E0CE01E1
:1010400007960E94E903BE016F5F7F4FCE010796AE
:101050000E94660367E672E00E9450030E94D80176
:10106000CE0107960E94FA03CE0101960E94FA0370
:10107000C8010A978B359105A0F5B801CE010196FC
:101080000E949A036EE272E0CE0107960E94E90385
:10109000BE016F5F7F4FCE0107960E94660368E630
:1010A00072E00E9450030E94D801CE0107960E9470
:1010B000FA03CE0101960E94FA0380E28A95F1F7C5
:1010C000B801CE0101960E940204CE0101960E9451
:1010D000CE02CE0101960E94FA03E0E2EA95F1F712
:1010E0003BCF053611054CF3B801CE0101960E94A5
:1010F0009A036EE272E0CE0107960E94E903BE01F8
:101100006F5F7F4FCE0107960E94660369E672E02B
:10111000C8CF1092D2021092D10264E670E0CE01E4
:1011200001960E949A0366E772E0CE0107960E943C
:10113000E903BE016F5F7F4FCE0107960E946603F1
:101140006DEA72E00E9450030E94CE02CE01079623
:101150000E94FA03CE0101960E94FA0360E08CE03F
:101160000E94DD0060ED77E080E090E00E94790170
:1011700088E198E00FB6F894A895809360000FBEC0
:1011800090936000FFCFE114F10409F4CCCD0E94EC
:101190001E02882309F4C7CD0E940000C4CD86EB4F
:1011A00092E00E94DC02C0CEECEDF2E013821282EB
:1011B00088EE93E0A0E0B0E084839583A683B783B4
:1011C0008AE091E09183808385EC90E09587848725
:1011D00084EC90E09787868780EC90E0918B808B01
:1011E00081EC90E0938B828B82EC90E0958B848BEA
:1011F00086EC90E0978B868B118E128E138E148E58
:101200000895BB274A3031F4992322F4BDE290952A
:1012100081959F4F0C940D09BB27FB015527AA27E9
:10122000880F991FAA1FA41710F0A41B8395505173
:10123000B9F7A05DAA3308F0A95DA193009779F7EB
:10124000B111B1931192CB010C942609DC01FC0180
:10125000672F71917723E1F7329704C07C916D93EA
:1012600070836291AE17BF07C8F308952F923F9223
:101270004F925F926F927F928F929F92AF92BF92A6
:10128000CF92DF92EF92FF920F931F93CF93DF9352
:10129000CDB7DEB7CA1BDB0B0FB6F894DEBF0FBEAF
:1012A000CDBF09942A88398848885F846E847D84FC
:1012B0008C849B84AA84B984C884DF80EE80FD80FE
:1012C0000C811B81AA81B981CE0FD11D0FB6F89474
:1012D000DEBF0FBECDBFED010895EE0FFF1F0590DD
:1012E000F491E02D09940F931F93CF93DF938230F5
:1012F000910510F482E090E0E0917B03F0917C0393
:1013000030E020E0B0E0A0E0309799F421153105FD
:1013100009F44AC0281B390B24303105D8F58A81DD
:101320009B816115710589F1FB0193838283FE0125
:1013300011C0408151810281138148175907E0F0A3
:101340004817590799F4109761F012960C93129769
:1013500013961C933296CF01DF91CF911F910F917D
:10136000089500937B0310937C03F4CF211531057E
:1013700051F04217530738F0A901DB019A01BD0172
:10138000DF01F801C1CFEF01F9CF90937C03809387
:101390007B03CDCFFE01E20FF31F81939193225087
:1013A000310939832883D7CF2091790330917A038B
:1013B000232B41F4209102013091030130937A03F1
:1013C000209379032091000130910101211531050D
:1013D00041F42DB73EB74091040150910501241B03
:1013E000350BE0917903F0917A03E217F307A0F44B
:1013F0002E1B3F0B2817390778F0AC014E5F5F4F6B
:101400002417350748F04E0F5F1F50937A0340931F
:101410007903819391939FCFF0E0E0E09CCFCF934D
:10142000DF930097E9F0FC01329713821282A091BA
:101430007B03B0917C03ED0130E020E01097A1F434
:1014400020813181820F931F2091790330917A039B
:101450002817390709F061C0F0937A03E093790304
:10146000DF91CF910895EA01CE17DF07E8F54A81B1
:101470005B819E0141155105B1F7E901FB83EA83C8
:1014800049915991C40FD51FEC17FD0761F4808174
:1014900091810296840F951FE90199838883828147
:1014A00093819B838A83F0E0E0E012968D919C917A
:1014B00013970097B9F52D913C911197CD010296A4
:1014C000820F931F2091790330917A0328173907EF
:1014D00039F6309751F510927C0310927B03B0934C
:1014E0007A03A0937903BCCFD383C2834081518117
:1014F000840F951FC817D90761F44E5F5F4F88812D
:101500009981480F591F518340838A819B8193831E
:1015100082832115310509F0B0CFF0937C03E0936D
:101520007B039ECFFD01DC01C0CF13821282D7CF97
:10153000B0E0A0E0EEE9FAE00C9438098C010097E5
:1015400051F4CB010E9473098C01C801CDB7DEB7FD
:10155000E0E10C945409FC01E60FF71F9C012250B6
:101560003109E217F30708F49DC0D901CD91DC9150
:101570001197C617D70798F0C530D10530F3CE01C3
:1015800004978617970708F3C61BD70B2297C193BA
:10159000D1936D937C93CF010E940F0AD6CF5B014C
:1015A000AC1ABD0A4C018C0E9D1EA0917B03B0911C
:1015B0007C03512C412CF12CE12C109731F58091BA
:1015C000790390917A038815990509F05CC0461655
:1015D000570608F058C080910001909101010097D2
:1015E00041F48DB79EB74091040150910501841BD1
:1015F000950BE817F90708F055C0F0937A03E093CC
:101600007903F90171836083A0CF8D919C9111972B
:1016100012966C90129713967C901397A815B905A3
:1016200059F56C0142E0C40ED11CCA14DB0420F150
:10163000AC014A195B09DA011296159780F06282B3
:10164000738251834083D9016D937C93E114F1043B
:1016500071F0D7011396FC93EE93129776CF2296F2
:101660008C0F9D1FF90191838083F301EFCFF093DD
:101670007C03E0937B0369CF4816590608F42C01DC
:101680007D01D3019ACFCB010E9473097C010097A1
:1016900049F0AE01B8010E94550BC8010E940F0A23
:1016A000870153CF10E000E050CFFB01DC0102C006
:1016B00001900D9241505040D8F70895FB01DC0194
:0E16C00001900D920020E1F70895F894FFCFFD
:1016CE0000007D038000000000005402AB01E10128
:1016DE00A1021202F00104023030303030303030CE
:1016EE00003100424F4F54494E47004C4754384644
:1016FE0033323820776968205368696674205265E2
:10170E006769737465722037344843313635004447
:10171E00726E427453686966745265675049534FCE
:10172E00002056657273696F6E200053797374656D
:10173E006D20697320616C6C6F636174696E6720D4
:10174E000020736C6F747320746F2073746F7265E6
:10175E00205049534F207265676973747279206601
:10176E006F756E642E000A5761726E696E67202166
:10177E0021210D0A4166746572206D6963726F2DA9
:10178E00636F6E74726F6C6C657220776F726B27FD
:10179E007320646F6E65206974207265626F6F745A
:1017AE0020616E6420737461727420616761696E6A
:1017BE002E0D0A002D2D2D2D2D2D2D2D2D2D2D2DBA
:1017CE002D2D2D2D2D2D2D2D00547269616C206E19
:1017DE00756D6265723A200050696E2053746174A3
:1017EE0065733A200052656769737465722056619D
:1017FE006C75653A20005265706F7274696E672061
:10180E00616C6C2072656769737465722D73746197
:10181E00746520646973636F7665726564202E004B
:10182E002D2020002D200020202050696E20537482
:10183E006174653A20000A506C656173652073749B
:10184E00616E642D62792C206D6963726F2D636FEA
:10185E006E74726F6C6C6572206973207265626F44
:10186E006F74696E672061667465722000207472F1
:10187E0069616C732E004E657720737461746520F8
:0A188E00646973636F7665722E00C3
:00000001FF
