:100000000C9476000C949E000C949E000C949E0020
:100010000C949E000C949E000C949E000C949E00E8
:100020000C949E000C949E000C949E000C949E00D8
:100030000C949E000C949E000C949E000C949E00C8
:100040000C947B040C949E000C94E7040C94C10463
:100050000C949E000C949E000C949E000C949E00A8
:100060000C949E000C949E000C9400000C940000D4
:100070000C9400000C9400000000000024002700F5
:100080002A002D0000000000250028002B002E0073
:10009000000000002300260029002C0004040404B2
:1000A0000404040402020202020203030303030322
:1000B000050505050505050301020408102040801B
:1000C00001020408102001020408102002080104A3
:1000D0001040204000000008500201000003040707
:1000E00000000000000000000000190511241FBEE0
:1000F000CFEFD8E0DEBFCDBF23E0AEEDB2E001C070
:100100001D92AC3CB207E1F712E0A0E0B1E0EAEDED
:10011000F9E102C005900D92AE3DB107D9F710E0AC
:10012000C6E7D0E004C02197FE010E94DE0AC53771
:10013000D107C9F70E9475050C94EB0C0C940000D4
:1001400081508B3088F5E82FF0E0E755FF4F0C9495
:10015000DE0ABE00C200B400BA00D400D400C5005C
:10016000CB00CF00D500D900809180008F7780939D
:1001700080000895809180008F7DF9CF84B58F77BE
:1001800084BD089584B58F7DFBCF8091B0008F77BB
:100190008093B00008958091B0008F7DF9CF809159
:1001A00090008F77809390000895809190008F7DCC
:1001B000F9CF80919000877FF5CFCF93DF93282FE1
:1001C00030E0F901EC52FF4F8491F901E854FF4F00
:1001D000D491F901E456FF4FC491CC23A1F08111D1
:1001E0000E94A000EC2FF0E0EE0FFF1FE057FF4F42
:1001F000A591B491EC91ED2381E090E009F480E0C9
:10020000DF91CF91089580E090E0FACF1F93CF93D4
:10021000DF93282F30E0F901EC52FF4F8491F90170
:10022000E854FF4FD491F901E456FF4FC491CC2319
:10023000A9F0162F81110E94A000EC2FF0E0EE0F24
:10024000FF1FEC57FF4FA591B4918FB7F894EC9135
:10025000111108C0D095DE23DC938FBFDF91CF91C1
:100260001F910895DE2BF8CFCF93DF93282F30E036
:10027000F901E854FF4F449124563F4FF90124916E
:10028000843011F583E08093A0002223D1F0822FE7
:1002900090E0880F991FFC01E858FF4FA591B49199
:1002A000FC01EC57FF4FC591D491611122C09FB75B
:1002B000F8948C91409584238C93888148234883BB
:1002C0009FBFDF91CF9108959AEE980F923020F45E
:1002D0008FEF84BF84BFD9CF8931B9F68091F00008
:1002E00082608EBB80E88093F0008EB38093F00034
:1002F000CCCF8FB7F894EC914E2B4C938FBFE1CFBE
:100300003FB7F8948091E7029091E802A091E9024A
:10031000B091EA0226B5A89B05C02F3F19F00196BF
:10032000A11DB11D3FBFBA2FA92F982F8827BC014F
:10033000CD01620F711D811D911D660F771F881FF2
:10034000991F0895CF92DF92EF92FF92CF93DF93A0
:10035000D82FC62F0E9480016B017C018091A503DC
:100360009091A603A091A703B091A803C816D9063F
:10037000EA06FB0640F41092A5031092A603109221
:10038000A7031092A8038091A5039091A603A091C2
:10039000A703B091A803B701A601481B590B6A0B2C
:1003A0007B0B8091970390919803A0919903B09152
:1003B0009A0384179507A607B707F8F48091A1035D
:1003C0009091A2036C2F009721F00197C1F461E096
:1003D0006C278D2F0E9406018091A1039091A203AA
:1003E00001969093A2038093A103C092A503D0929B
:1003F000A603E092A703F092A80380E005C0109244
:10040000A2031092A10381E0DF91CF91FF90EF90C2
:10041000DF90CF9008958F929F92AF92BF92CF922C
:10042000DF92EF92FF924B015C010E9480016B0111
:100430007C010E9480016C197D098E099F09683E2C
:10044000734081059105A8F321E0821A9108A10863
:10045000B10888EEC80E83E0D81EE11CF11C81149F
:100460009104A104B10429F7FF90EF90DF90CF90A1
:10047000BF90AF909F908F900895AF92BF92CF9210
:10048000DF92EF92FF920F931F93CF93DF936C0154
:100490007B018B01040F151FEB015E01AE18BF0835
:1004A000C017D10759F06991D601ED91FC910190E7
:1004B000F081E02DC6010995892B79F7C501DF91FF
:1004C000CF911F910F91FF90EF90DF90CF90BF9051
:1004D000AF900895FC01538D448D252F30E0842F7B
:1004E00090E0821B930B541710F0CF96089501975C
:1004F0000895FC01918D828D981761F0A28DAE0F49
:10050000BF2FB11D5D968C91928D9F5F9F73928FCF
:1005100090E008958FEF9FEF0895FC01918D828DFB
:10052000981731F0828DE80FF11D858D90E00895C8
:100530008FEF9FEF0895FC01918D228D892F90E020
:10054000805C9F4F821B91098F73992708958BEED2
:1005500092E00E949B0221E0892B09F420E0822F87
:10056000089580E090E0892B29F00E94A702811174
:100570000C9400000895FC01A48DA80FB92FB11DA3
:10058000A35ABF4F2C91848D90E001968F739927C9
:10059000848FA689B7892C93A089B1898C918370A7
:1005A00080648C93938D848D981306C00288F389A0
:1005B000E02D80818F7D80830895EF92FF920F93CD
:1005C0001F93CF93DF93EC0181E0888F9B8D8C8DFF
:1005D00098131AC0E889F989808185FF15C09FB7F3
:1005E000F894EE89FF896083E889F98980818370B6
:1005F000806480839FBF81E090E0DF91CF911F9165
:100600000F91FF90EF900895F62E0B8D10E00F5F85
:100610001F4F0F731127E02E8C8D8E110CC00FB65B
:1006200007FCFACFE889F989808185FFF5CFCE01F3
:100630000E94BB02F1CFEB8DEC0FFD2FF11DE35AB1
:10064000FF4FF0829FB7F8940B8FEA89FB89808176
:100650008062CFCFCF93DF93EC01888D8823B9F0F0
:10066000AA89BB89E889F9898C9185FD03C08081BD
:1006700086FD0DC00FB607FCF7CF8C9185FFF2CF3A
:10068000808185FFEDCFCE010E94BB02E9CFDF91D3
:10069000CF910895FC0101900020E9F73197AF0157
:1006A000481B590BBC018BEE92E00C943D02CF939A
:1006B000DF930E944A03EC0188E191E00E944A0323
:1006C0008C0F9D1FDF91CF910895CF93DF93FC0195
:1006D00044815581608171818BEE92E00E943D02E0
:1006E000EC0188E191E00E944A038C0F9D1FDF918D
:1006F000CF910895CF93DF93EC0188819981009782
:1007000011F00E94950B198218821D821C821B8297
:100710001A82DF91CF910895FC0180819181009729
:1007200011F00C94950B08950F931F93CF93DF93C3
:10073000EC0188819981009759F02A813B81261725
:10074000370730F081E0DF91CF911F910F9108952D
:100750008B016F5F7F4F0E941E0C009759F09983A9
:1007600088831B830A832C813D81232B59F7FC014D
:100770001082E8CF80E0E7CFEF92FF920F931F93B4
:10078000CF93DF936115710541F480E0DF91CF9144
:100790001F910F91FF90EF90089541155105B1F011
:1007A0007B01EC010C811D81040F151FB8010E9413
:1007B0009403882351F3288139818C819D81B7016D
:1007C000820F931F0E94E40C1D830C8381E0DECF17
:1007D000CF93DF93EC01FB0101900020E9F7319703
:1007E000AF01461B570B0E94BC03811103C0CE0111
:1007F0000E947A03CE01DF91CF910895CF93DF93CA
:10080000EC01FB0144815581608171810E94BC0330
:10081000811103C0CE010E947A03CE01DF91CF91F6
:100820000895EF92FF920F931F93CF93DF93EC0104
:100830007B018A01BA010E94940381110BC0CE0191
:100840000E947A03CE01DF91CF911F910F91FF900B
:10085000EF9008951D830C83B701888199810E94D0
:10086000E40CF0CFEF92FF920F931F93CF93DF939F
:10087000CDB7DEB762970FB6F894DEBF0FBECDBF1F
:100880008C01CB01F8011182108213821282158231
:1008900014824AE09E012F5F3F4F7901B9010E9407
:1008A000720AF70101900020E9F73197AF014E1964
:1008B0005F09B701C8010E94110462960FB6F8944F
:1008C000DEBF0FBECDBFDF91CF911F910F91FF9083
:1008D000EF900895FC01118210821382128215821A
:1008E0001482FB0101900020E9F73197AF01461B0C
:1008F000570B0C9411041F920F920FB60F921124F4
:100900002F933F938F939F93AF93BF938091E30275
:100910009091E402A091E502B091E6023091E202EA
:1009200020E4230F2D3728F023EC230F0196A11D7F
:10093000B11D2093E2028093E3029093E402A0931E
:10094000E502B093E6028091E7029091E802A0915F
:10095000E902B091EA020196A11DB11D8093E70260
:100960009093E802A093E902B093EA02BF91AF919D
:100970009F918F913F912F910F900FBE0F901F90DD
:1009800018951F920F920FB60F9211242F933F9339
:100990004F935F936F937F938F939F93AF93BF9387
:1009A000EF93FF938BEE92E00E94BB02FF91EF91D9
:1009B000BF91AF919F918F917F916F915F914F9177
:1009C0003F912F910F900FBE0F901F9018951F927F
:1009D0000F920FB60F9211242F938F939F93EF9343
:1009E000FF93E091FB02F091FC028081E091010312
:1009F000F091020382FD1BC09081809104038F5F00
:100A00008F7320910503821741F0E0910403F0E019
:100A1000E551FD4F958F80930403FF91EF919F91D6
:100A20008F912F910F900FBE0F901F90189580817E
:100A3000F4CFEBEEF2E01382128288EE93E0A0E0B6
:100A4000B0E084839583A683B7838AE091E09183A5
:100A5000808385EC90E09587848784EC90E097878D
:100A6000868780EC90E0918B808B81EC90E0938B7B
:100A7000828B82EC90E0958B848B86EC90E0978B58
:100A8000868B118E128E138E148EE8E8F3E011829D
:100A900010821382128215821482178216821086A7
:100AA00081E081871286138614861586168684E671
:100AB00090E0A0E0B0E08787908BA18BB28B138A87
:100AC000148A158A168A82E090E0908F878B128EA6
:100AD000118E148E138E158E168E178E10A211A2E3
:100AE00012A213A214A215A20895CF93DF93CDB73B
:100AF000DEB7A0970FB6F894DEBF0FBECDBF8091D2
:100B0000F20080618EBB80E88093F2009EB39093E8
:100B1000F2008093610011E0109361009091F20067
:100B20009F799EBB8093F2009EB39093F2009091C8
:100B3000F2009B7F9EBB8093F2009EB39093F200E5
:100B40008093610010926100789484B5826084BDC6
:100B500084B5816084BD85B5826085BD85B58160C1
:100B600085BD80916E00816080936E00109281003F
:100B700080918100826080938100809181008160FA
:100B800080938100809180008160809380008091BB
:100B9000B10084608093B1008091B0008160809347
:100BA000B0008091910082608093910080919100CB
:100BB000816080939100809190008160809390008B
:100BC00080917A00846080937A0080917A008D7F92
:100BD00080937A0080917A008E7F80937A00809152
:100BE0007A00806880937A001092C1008091E000C2
:100BF00088608093E00061E082E00E94340161E05F
:100C000082E00E940601E091FB02F091FC0282E08A
:100C10008083E091F702F091F8021083E091F902ED
:100C2000F091FA0280EA808310920303E091FF02C0
:100C3000F091000386E08083E091FD02F091FE02D6
:100C4000808180618083E091FD02F091FE028081CD
:100C500088608083E091FD02F091FE0280818068CF
:100C60008083E091FD02F091FE0280818F7D808380
:100C700060E177E280E090E00E940B0288E191E081
:100C80000E944A038BE191E00E94570383E291E0C6
:100C90000E94570367E971E0CE0101960E94320479
:100CA00061E070E0CE0107960E94320463E471E0D7
:100CB000CE0143960E946A041E861D86188A1F86EE
:100CC0001A8A198A6B897C896115710531F04F89FF
:100CD000588DCE010D960E94110462E571E0CE019F
:100CE0000D960E94E803BE01695F7F4F0E94FE03DC
:100CF0006BE772E00E94E803BE016F5F7F4F0E94C6
:100D0000FE0368E171E00E94E8030E946503CE01E2
:100D10000D960E948C03CE0143960E948C03CE0157
:100D200007960E948C03CE0101960E948C0360E816
:100D30007EE3CE0101960E9432046CE571E0CE01A3
:100D400007960E946A04BE016F5F7F4FCE0107962F
:100D50000E94FE0362E971E00E94E8030E946503BD
:100D6000CE0107960E948C03CE0101960E948C034F
:100D700060E87EE3CE0101960E94320465E971E0ED
:100D8000CE0107960E946A04BE016F5F7F4FCE01BD
:100D900007960E94FE0362E971E00E94E8030E9448
:100DA0006503CE0107960E948C03CE0101960E9436
:100DB0008C038AEF91E00E94570383E090E09093C8
:100DC00089038093880384E090E090938B03809361
:100DD0008A031092920382E090E090938D038093B7
:100DE0008C0388E090E090938F0380938E0311E052
:100DF0001093900361E083E00E94340160919103BD
:100E0000612783E00E94060161E084E00E943401D2
:100E100061E084E00E94060160E082E00E9434010B
:100E200088EE93E0A0E0B0E080939B0390939C0356
:100E3000A0939D03B0939E038DE790E0A0E0B0E007
:100E40008093970390939803A0939903B0939A0388
:100E500082E390E0A0E0B0E080939303909394034A
:100E6000A0939503B093960360E08CE00E94340158
:100E700061E08CE00E9406018091E0029091E10225
:100E800001969093E1028093E0024AE050E0509393
:100E9000A00340939F030E9480012B013C0180919D
:100EA000AA039091AB03A091AC03B091AD03481697
:100EB00059066A067B0640F41092AA031092AB030F
:100EC0001092AC031092AD038091AA039091AB03F2
:100ED000A091AC03B091AD03B301A201481B590B23
:100EE0006A0B7B0B80919B0390919C03A0919D03C7
:100EF000B0919E0384179507A607B70708F090C026
:100F00001091A9031111E7C18091A3039091A4034B
:100F1000892B09F098C19090920330908A039091A8
:100F20008B034091930350919403609195037091CA
:100F30009603452B462B472B09F480C180909103E3
:100F4000209088030E9480012B013C018091A50321
:100F50009091A603A091A703B091A8034816590643
:100F60006A067B0640F41092A5031092A603109225
:100F7000A7031092A8032091A1033091A2038091AE
:100F8000A5039091A603A091A703B091A803B30174
:100F9000A201481B590B6A0B7B0BDB01CA0121150F
:100FA000310589F44091970350919803609199031A
:100FB00070919A03481759076A077B0708F02AC1FE
:100FC000692D832D14C02130310509F0FDC04091F9
:100FD0009303509194036091950370919603481781
:100FE00059076A077B0708F015C1682D822D0E94FA
:100FF00006018091A1039091A20301969093A20310
:101000008093A1034092A5035092A6036092A70388
:101010007092A803812F90E09093A4038093A30380
:101020008091B0039091B1039093DF028093DE0230
:101030008FE392E00E9457036091E0027091E10219
:10104000CE0101960E94320464E572E0CE0107965B
:101050000E946A04BE016F5F7F4FCE0107960E9417
:10106000FE030E946503CE0107960E948C03CE0109
:1010700001960E948C0383E692E00E9457036091E0
:10108000DE027091DF02CE0101960E9432046DE70C
:1010900072E0CE0107960E946A04BE016F5F7F4F27
:1010A000CE0107960E94FE030E946503CE010796BB
:1010B0000E948C03CE0101960E948C038BE892E083
:1010C0000E944A03912C812C41E050E0082C02C080
:1010D000440F551F0A94E2F7952F990F990B209111
:1010E000B00324233091B10335234091B203492347
:1010F0005091B30359236091B40369237091B503F0
:1011000079238091B603F091B703E1E089239F230F
:10111000A0E00E94ED0A09F4E0E080919003E8135A
:10112000D1C18AE992E00E944A035FEF851A950ACD
:1011300068E08616910441F688E191E00E944A0336
:1011400060ED77E080E090E00E940B028091E00289
:101150009091E1028436910509F0B7C164E670E030
:10116000CE0101960E9432046EE972E0CE0107962C
:101170000E946A04BE016F5F7F4FCE0107960E94F6
:10118000FE0365ED72E00E94E8030E946503CE0154
:1011900007960E948C03CE0101960E948C0360E0AA
:1011A0008CE00E94060160ED77E080E090E00E9414
:1011B0000B0288E198E00FB6F894A8958093600040
:1011C0000FBE90936000FFCF2230310581F4409133
:1011D0009703509198036091990370919A0348176F
:1011E00059076A077B07B0F461E06825FFCE23301A
:1011F000310581F4409193035091940360919503DC
:1012000070919603481759076A077B0718F461E045
:101210006925D7CE40919703509198036091990327
:1012200070919A03481759076A077B0708F0F2CEB6
:101230001092A2031092A10311E0ECCE692D832D30
:101240000E94A201E8CE1092A4031092A303809101
:101250008C030E94DD002091A3033091A403A90117
:101260004F5F5F4F5093A4034093A30302C0880FC6
:10127000991F2A95E2F79C01932F990F990BE09102
:10128000C003E22B7091C103732B6091C203692BE1
:101290005091C303592B4091C403492B3091C5038E
:1012A000392B2091C603292B8091C703982BE093FB
:1012B000C0037093C1036093C2035093C303409370
:1012C000C4033093C5032093C6039093C70351E032
:1012D0005093A903A5CE60919103809188039091CA
:1012E00089030E94A201882309F49ACE1092A203D6
:1012F0001092A1032091A3033091A40380918E0347
:1013000090918F03281739070CF041C080918C030E
:101310000E94DD002091A3033091A403AC01022EB2
:1013200002C0440F551F0A94E2F7952F990F990BAD
:10133000A091C003A42BF091C103F52BE091C2034F
:10134000E92B7091C303792B6091C403692B5091F1
:10135000C503592B4091C603492B8091C703982B95
:10136000A093C003F093C103E093C2037093C3033F
:101370006093C4035093C5034093C6039093C7037F
:101380002F5F3F4F3093A4032093A30349CE609176
:10139000B803698F7091B9037A8F8091BA038B8FEC
:1013A0009091BB039C8F4091BC034D8F5091BD0326
:1013B0005E8F6091BE036F8F7091BF0378A3209002
:1013C000C0033090C1038090C2039090C303B091DA
:1013D000C403A091C503F091C603E091C703298D12
:1013E0003A8DAC016D8D7E8D8F8D98A15101640178
:1013F000EB2EFA2E0F2F1E2F0E94E40A89F181E0B6
:1014000090E09093AF038093AE032092B8033092A4
:10141000B9038092BA039092BB03B093BC03A0932C
:10142000BD03F093BE03E093BF031092C00310927C
:10143000C1031092C2031092C3031092C40310920E
:10144000C5031092C6031092C7031092A9034092DD
:10145000AA035092AB036092AC037092AD03E0CD4F
:101460008091AE039091AF0320919F033091A00330
:101470008217930730F401969093AF038093AE03E5
:10148000D4CF998D9093B0034A8D4093B1035B8D77
:101490005093B2036C8D6093B3037D8D7093B4034E
:1014A0008E8D8093B5039F8D9093B60348A1409392
:1014B000B7031092AF031092AE031092A4031092E0
:1014C000A303B3CF8CE992E02ECE80E090E0892B8D
:1014D00009F4D2CC0E94A702882309F4CDCC0E9443
:1014E0000000CACCBB274A3031F4992322F4BDE274
:1014F000909581959F4F0C947E0ABB27FB01552741
:10150000AA27880F991FAA1FA41710F0A41B839560
:101510005051B9F7A05DAA3308F0A95DA1930097D7
:1015200079F7B111B1931192CB010C94970ADC01B8
:10153000FC01672F71917723E1F7329704C07C910A
:101540006D9370836291AE17BF07C8F308952F9211
:101550003F924F925F926F927F928F929F92AF9243
:10156000BF92CF92DF92EF92FF920F931F93CF9390
:10157000DF93CDB7DEB7CA1BDB0B0FB6F894DEBF27
:101580000FBECDBF09942A88398848885F846E844D
:101590007D848C849B84AA84B984C884DF80EE8097
:1015A000FD800C811B81AA81B981CE0FD11D0FB6A0
:1015B000F894DEBF0FBECDBFED010895EE0FFF1F03
:1015C0000590F491E02D09942A153B054C055D0525
:1015D0006E057F058007910708950024A7FD0094FC
:1015E0002A173005400550056005700580059005F7
:1015F00008950F931F93CF93DF938230910510F4DA
:1016000082E090E0E091CA03F091CB0330E020E06B
:10161000B0E0A0E0309799F42115310509F44AC0F3
:10162000281B390B24303105D8F58A819B8161153F
:10163000710589F1FB0193838283FE0111C0408112
:1016400051810281138148175907E0F04817590763
:1016500099F4109761F012960C93129713961C93BD
:101660003296CF01DF91CF911F910F910895009392
:10167000CA031093CB03F4CF2115310551F0421763
:10168000530738F0A901DB019A01BD01DF01F80120
:10169000C1CFEF01F9CF9093CB038093CA03CDCF95
:1016A000FE01E20FF31F8193919322503109398398
:1016B0002883D7CF2091C8033091C903232B41F44D
:1016C00020910201309103013093C9032093C80394
:1016D00020910001309101012115310541F42DB710
:1016E0003EB74091040150910501241B350BE09158
:1016F000C803F091C903E217F307A0F42E1B3F0BB8
:101700002817390778F0AC014E5F5F4F2417350773
:1017100048F04E0F5F1F5093C9034093C803819355
:1017200091939FCFF0E0E0E09CCFCF93DF930097C1
:10173000E9F0FC01329713821282A091CA03B091A2
:10174000CB03ED0130E020E01097A1F4208131813E
:10175000820F931F2091C8033091C90328173907BE
:1017600009F061C0F093C903E093C803DF91CF9102
:101770000895EA01CE17DF07E8F54A815B819E01F3
:1017800041155105B1F7E901FB83EA83499159916C
:10179000C40FD51FEC17FD0761F48081918102967B
:1017A000840F951FE90199838883828193819B83AC
:1017B0008A83F0E0E0E012968D919C911397009758
:1017C000B9F52D913C911197CD010296820F931F8F
:1017D0002091C8033091C9032817390739F630978B
:1017E00051F51092CB031092CA03B093C903A09392
:1017F000C803BCCFD383C28340815181840F951F1E
:10180000C817D90761F44E5F5F4F88819981480FEF
:10181000591F518340838A819B8193838283211541
:10182000310509F0B0CFF093CB03E093CA039ECF0C
:10183000FD01DC01C0CF13821282D7CFB0E0A0E05F
:10184000E4E2FCE00C94A90A8C01009751F4CB016E
:101850000E94F90A8C01C801CDB7DEB7E0E10C9413
:10186000C50AFC01E60FF71F9C0122503109E2175F
:10187000F30708F49DC0D901CD91DC911197C617EB
:10188000D70798F0C530D10530F3CE0104978617FD
:10189000970708F3C61BD70B2297C193D1936D937B
:1018A0007C93CF010E94950BD6CF5B01AC1ABD0A89
:1018B0004C018C0E9D1EA091CA03B091CB03512CFC
:1018C000412CF12CE12C109731F58091C8039091B7
:1018D000C9038815990509F05CC04616570608F03B
:1018E00058C08091000190910101009741F48DB79B
:1018F0009EB74091040150910501841B950BE81798
:10190000F90708F055C0F093C903E093C803F90143
:1019100071836083A0CF8D919C91119712966C90EA
:10192000129713967C901397A815B90559F56C0179
:1019300042E0C40ED11CCA14DB0420F1AC014A19E8
:101940005B09DA011296159780F0628273825183E7
:101950004083D9016D937C93E114F10471F0D701B8
:101960001396FC93EE93129776CF22968C0F9D1FC1
:10197000F90191838083F301EFCFF093CB03E093E0
:10198000CA0369CF4816590608F42C017D01D3011A
:101990009ACFCB010E94F90A7C01009749F0AE0171
:1019A000B8010E94DB0CC8010E94950B870153CF40
:1019B00010E000E050CFFB01DC0102C001900D926D
:1019C00041505040D8F70895FB01DC0101900D9281
:0A19D0000020E1F70895F894FFCF1E
:1019DA000000CC03800000000000DD023D026A0224
:1019EA002A039B0279028D020D0A00424F4F544985
:1019FA004E47004C4754384633323820536869669C
:101A0A0074205265676973746572203734484331AC
:101A1A003635004C4754384633323853525069737E
:101A2A006F002056657273696F6E2000536869668D
:101A3A0074205265676973746572204672657175A0
:101A4A00656E6379206F6E2050696E20332073684B
:101A5A006F756C64206F7065726174652061743A89
:101A6A002000687A0045787465726E616C2066722F
:101A7A00657175656E6379207573656420746F206E
:101A8A0073796E6368726F6E697A6520746865200F
:101A9A005049534F205368696674205265676973C9
:101AAA007465720D0A45787465726E616C2066728F
:101ABA00657175656E637920636F6E6669677572A5
:101ACA00652073657420746F20000A5761726E690D
:101ADA006E67202121210D0A4166746572206D69A5
:101AEA0063726F2D636F6E74726F6C6C65722077A0
:101AFA006F726B206974207265626F6F7420616EF9
:101B0A006420737461727420616761696E2E002D9E
:101B1A002D2D2D2D2D2D2D2D2D2D2D2D2D2D2D2DEB
:101B2A002D2D2D00547269616C206E756D6265727F
:101B3A003A2000537461727420612072656164698D
:101B4A006E672073657175656E63652E00526561F7
:101B5A0064206E756D6265723A2000526574757202
:101B6A006E2076616C75653A2000310030000A50AB
:101B7A006C65617365207374616E642D62792C20C3
:101B8A006D6963726F2D636F6E74726F6C6C6572C0
:101B9A00206973207265626F6F74696E672061666F
:0E1BAA00746572200020747269616C732E00E5
:00000001FF
