:100000000C9430030C9425190C94FE180C9458038E
:100010000C9458030C9458030C9458030C945803F4
:100020000C9458030C9458030C9458030C945803E4
:100030000C9458030C9458030C9458030C945803D4
:100040000C94B8180C9458030C9472190C944C1915
:100050000C9458030C9458030C9458030C945803B4
:100060000C94A4190C9458030C9400000C940000F8
:100070000C9400000C94000000000000003E5B4F58
:100080005B3E3E6B4F6B3E1C3E7C3E1C183C7E3CF8
:10009000181C577D571C1C5E7F5E1C00183C180006
:1000A000FFE7C3E7FF0018241800FFE7DBE7FF3096
:1000B000483A060E2629792926407F050507407F04
:1000C00005253F5A3CE73C5A7F3E1C1C08081C1C77
:1000D0003E7F14227F22145F5F005F5F06097F016D
:1000E0007F006689956A606060606094A2FFA29458
:1000F00008047E040810207E201008082A1C080826
:100100001C2A08081E101010100C1E0C1E0C303873
:100110003E3830060E3E0E06000000000000005F74
:1001200000000007000700147F147F14242A7F2A90
:100130001223130864623649562050000807030052
:10014000001C2241000041221C002A1C7F1C2A089E
:10015000083E080800807030000808080808000001
:1001600060600020100804023E5149453E00427F75
:10017000400072494949462141494D331814127FC4
:100180001027454545393C4A494931412111090764
:100190003649494936464949291E000014000000E5
:1001A00040340000000814224114141414140041B7
:1001B00022140802015909063E415D594E7C121174
:1001C000127C7F494949363E414141227F414141AC
:1001D0003E7F494949417F090909013E4141517327
:1001E0007F0808087F00417F41002040413F017F98
:1001F000081422417F404040407F021C027F7F0460
:1002000008107F3E4141413E7F090909063E4151A8
:10021000215E7F09192946264949493203017F0198
:10022000033F4040403F1F2040201F3F4038403F99
:10023000631408146303047804036159494D4300AF
:100240007F4141410204081020004141417F0402E6
:10025000010204404040404000030708002054547D
:1002600078407F284444383844444428384444285B
:100270007F385454541800087E090218A4A49C78AE
:100280007F0804047800447D40002040403D007F0A
:100290001028440000417F40007C047804787C08EA
:1002A0000404783844444438FC18242418182424BE
:1002B00018FC7C08040408485454542404043F44A3
:1002C000243C4040207C1C2040201C3C4030403CD2
:1002D00044281028444C9090907C4464544C440032
:1002E0000836410000007700000041360800020196
:1002F0000204023C2623263C1EA1A161123A404082
:10030000207A3854545559215555794122545478FE
:1003100042215554784020545579400C1E52721297
:100320003955555559395454545939555454580020
:1003300000457C410002457D420001457C407D1224
:1003400011127DF0282528F07C5455450020545486
:100350007C547C0A097F4932494949323A44444431
:100360003A324A4848303A4141217A3A424020786C
:10037000009DA0A07D3D4242423D3D4040403D3C6D
:1003800024FF2424487E4943662B2FFC2F2BFF0992
:1003900029F620C0887E0903205454794100004486
:1003A0007D413048484A32384040227A007A0A0A71
:1003B000727D0D19317D2629292F282629292926E4
:1003C00030484D4020380808080808080808382F29
:1003D00010C8ACBA2F102834FA00007B00000814B3
:1003E0002A142222142A14085500550055AA55AA89
:1003F00055AAFF55FF55FF000000FF00101010FF29
:1004000000141414FF001010FF00FF1010F010F083
:10041000141414FC001414F700FF0000FF00FF1474
:1004200014F404FC141417101F10101F101F1414C0
:10043000141F00101010F0000000001F101010100A
:100440001F10101010F010000000FF1010101010FE
:1004500010101010FF10000000FF140000FF00FF3C
:1004600000001F10170000FC04F4141417101714D8
:1004700014F404F40000FF00F714141414141414FA
:10048000F700F7141414171410101F101F1414146D
:10049000F4141010F010F000001F101F0000001FD7
:1004A00014000000FC140000F010F01010FF10FF0A
:1004B000141414FF141010101F00000000F010FF9F
:1004C000FFFFFFFFF0F0F0F0F0FFFFFF0000000083
:1004D00000FFFF0F0F0F0F0F3844443844FC4A4A07
:1004E0004A347E02020606027E027E0263554941BC
:1004F000633844443C04407E201E2006027E0202F3
:1005000099A5E7A5991C2A492A1C4C7201724C3006
:100510004A4D4D303048784830BC625A463D3E49DD
:100520004949007E0101017E2A2A2A2A2A44445F81
:10053000444440514A444040444A51400000FF0175
:1005400003E080FF000008086B6B08361236243683
:10055000060F090F060000181800000010100030E8
:1005600040FF0101001F01011E00191D1712003C70
:100570003C3C3C000000000004E010021C07123765
:1005800032292D29252B3900010310E110031D0705
:10059000062E2C292D2E2E373F0000021013800A24
:1005A000298064022A04000200812B04000100A0BB
:1005B0000F0180961180FFB103012C2DB203012C95
:1005C0002DB306012C2D012C2DB40107C003A2026E
:1005D00084C101C5C2020A00C3028A2AC4028AEE8B
:1005E000C5010E20003601C83A01050000000024B4
:1005F0000027002A002D000000000023002600290B
:10060000002C000000000850020100000304070055
:10061000000000000000000000010204081020405B
:1006200080010204081020010204081020020801C1
:10063000041040204000000000250028002B002E60
:10064000000404040404040404020202020202037B
:100650000303030303050505050505050300BF1A8C
:1006600011241FBECFEFD8E0DEBFCDBF23E0A6ED43
:10067000B1E001C01D92A534B207E1F711E0A0E09E
:10068000B1E0E8E3F0E402C005900D92A63DB107A9
:10069000D9F713E0C0E3D3E004C02197FE010E9424
:1006A000EC1DCF32D107C9F70E94921B0C941A207F
:1006B0000C940000FC01538D448D252F30E0842FD5
:1006C00090E0821B930B541710F0CF96089501977A
:1006D0000895FC01918D828D981761F0A28DAE0F67
:1006E000BF2FB11D5D968C91928D9F5F9F73928FEE
:1006F00090E008958FEF9FEF0895FC01918D828D1A
:10070000981731F0828DE80FF11D858D90E00895E6
:100710008FEF9FEF0895FC01918D228D892F90E03E
:10072000805C9F4F821B91098F7399270895FC016C
:10073000A48DA80FB92FB11DA35ABF4F2C91848D42
:1007400090E001968F739927848FA689B7892C939F
:10075000A089B1898C91837080648C93938D848DF2
:10076000981306C00288F389E02D80818F7D8083F5
:100770000895EF92FF920F931F93CF93DF93EC01B5
:1007800081E0888F9B8D8C8D98131AC0E889F98938
:10079000808185FF15C09FB7F894EE89FF8960833B
:1007A000E889F98980818370806480839FBF81E0BC
:1007B00090E0DF91CF911F910F91FF90EF900895FE
:1007C000F62E0B8D10E00F5F1F4F0F731127E02ED9
:1007D0008C8D8E110CC00FB607FCFACFE889F98911
:1007E000808185FFF5CFCE010E949703F1CFEB8D7D
:1007F000EC0FFD2FF11DE35AFF4FF0829FB7F894E5
:100800000B8FEA89FB8980818062CFCFCF93DF9302
:10081000EC01888D8823B9F0AA89BB89E889F98918
:100820008C9185FD03C0808186FD0DC00FB607FC4D
:10083000F7CF8C9185FFF2CF808185FFEDCFCE0180
:100840000E949703E9CFDF91CF9108958CE592E064
:100850000E948B0321E0892B09F420E0822F089568
:1008600080E090E0892B29F00E94260481110C94ED
:100870000000089581508B3088F5E82FF0E0ED5BA3
:10088000FB4F0C94EC1D58045C044E0454046E049D
:100890006E045F04650469046F0473048091800032
:1008A0008F77809380000895809180008F7DF9CFAD
:1008B00084B58F7784BD089584B58F7DFBCF8091FB
:1008C000B0008F778093B00008958091B0008F7D45
:1008D000F9CF809190008F77809390000895809158
:1008E00090008F7DF9CF80919000877FF5CFCF93D7
:1008F000DF93282F30E0F901ED5FF94F8491F90182
:10090000E75EF94FD491F901EF5BF94FC491CC2325
:10091000A1F081110E943A04EC2FF0E0EE0FFF1FCE
:10092000E950FA4FA591B491EC91ED2381E090E06C
:1009300009F480E0DF91CF91089580E090E0FACF54
:100940001F93CF93DF93282F30E0F901ED5FF94F2C
:100950008491F901E75EF94FD491F901EF5BF94F0A
:10096000C491CC23A9F0162F81110E943A04EC2FD8
:10097000F0E0EE0FFF1FEB5CF94FA591B4918FB73C
:10098000F894EC91111108C0D095DE23DC938FBF51
:10099000DF91CF911F910895DE2BF8CFCF93DF9396
:1009A000282F30E0F901E75EF94F44912F5B394F72
:1009B000F9012491843011F583E08093A000222373
:1009C000D1F0822F90E0880F991FFC01E551FA4F7A
:1009D000A591B491FC01EB5CF94FC591D4916111E3
:1009E00022C09FB7F8948C91409584238C93888182
:1009F000482348839FBFDF91CF9108959AEE980FC7
:100A0000923020F48FEF84BF84BFD9CF8931B9F6FB
:100A10008091F00082608EBB80E88093F0008EB3FE
:100A20008093F000CCCF623051F49FB7F8942C91B2
:100A3000842F809582238C93E8814E2BDACF8FB759
:100A4000F894EC914E2B4C938FBFD5CF3FB7F894D1
:100A50008091580290915902A0915A02B0915B0284
:100A600026B5A89B05C02F3F19F00196A11DB11D09
:100A70003FBFBA2FA92F982F8827BC01CD01620F45
:100A8000711D811D911D660F771F881F991F089585
:100A90008F929F92AF92BF92CF92DF92EF92FF928E
:100AA0006B017C010E9426054B015C01C114D1043D
:100AB000E104F104B9F00E942605681979098A0950
:100AC0009B09683E73408105910580F321E0C21ABD
:100AD000D108E108F10888EE880E83E0981EA11C79
:100AE000B11CE4CFFF90EF90DF90CF90BF90AF901C
:100AF0009F908F9008952FB7F89460915402709151
:100B0000550280915602909157022FBF089583E0BD
:100B10000E94770421E0892B09F020E020934D0208
:100B2000089582E00E947704892B61F48091D601B8
:100B3000882341F084E00E947704892B69F481E0E6
:100B400080934A0282E00E94770421E0892B09F415
:100B500020E02093D60108958FEFF2CF0895AF9251
:100B6000BF92CF92DF92EF92FF920F931F93CF939A
:100B7000DF936C017B018B01040F151FEB015E01FC
:100B8000AE18BF08C017D10759F06991D601ED9191
:100B9000FC910190F081E02DC6010995892B79F730
:100BA000C501DF91CF911F910F91FF90EF90DF90E2
:100BB000CF90BF90AF9008952091FE01260F33276C
:100BC000331F21323105ECF420912202FC0190E028
:100BD00080E0243069F082E00895A091FE01219127
:100BE000AC0142525E4FA40FB52FB11D2C9301965C
:100BF000861798F38091FE01680F6093FE0180E0F4
:100C0000089581E0089508958FEF9FEF08958FEF85
:100C10009FEF08958091D70190E09195819591097A
:100C20000895CF93DF93CB01EA01642F0E94DC0586
:100C3000CE01DF91CF910895CF93DF931F92CDB76F
:100C4000DEB7698361E0CE0101960E94DC0581E098
:100C500090E00F90DF91CF910895FC01A5A1B6A17E
:100C60008C9192A589238C93A5A1B6A18C9191A575
:100C7000892B8C930895DC019396ED91FC919497C8
:100C8000908198968C91892380830895DC019396B6
:100C9000ED91FC919497908197968C91892B80830C
:100CA0000895DC019196ED91FC9192979081969632
:100CB0008C91892380830895DC019196ED91FC91BC
:100CC0009297908195968C91892B80830895CF92ED
:100CD000DF92EF92FF921F93CF93DF93EC016A01B3
:100CE0007B018DA981112BC08F2D9927AA27BB27A6
:100CF0008EBD0000CE99FECF84E489BBC701AA2730
:100D0000BB278EBD0000CE99FECF84E489BBBB27F4
:100D1000AF2D9E2D8D2D8EBD0000CE99FECF84E48B
:100D200089BBCEBC0000CE99FECF84E489BBDF91A5
:100D3000CF911F91FF90EF90DF90CF900895813079
:100D4000B1F410E2CE01F7FE0FC00E945C06CE01A6
:100D50000E944606CE010E943B06CC0CDD1CEE1C18
:100D6000FF1C115079F7E3CF0E945106F0CFEF8DB1
:100D7000F8A18F2D9927AA27BB278083CE010E9437
:100D80002D06EF8DF8A1C701AA27BB278083CE01CE
:100D90000E942D06EF8DF8A1BB27AF2D9E2D8D2D26
:100DA0008083CE010E942D06EF8DF8A1C082CE0176
:100DB000DF91CF911F91FF90EF90DF90CF900C9437
:100DC0002D06FF920F931F93CF93DF93EC018B01BE
:100DD0008DA9811112C01EBD0000CE99FECF84E402
:100DE00089BB0EBD0000CE99FECF84E489BBDF91A4
:100DF000CF911F910F91FF9008958130B1F490E150
:100E0000F92ECE0117FF0EC00E945C06CE010E9493
:100E10004606CE010E943B06000F111FFA94F11006
:100E2000F0CFE5CF0E945106F1CFEF8DF8A11083EE
:100E3000CE010E942D06EF8DF8A10083CE01DF9137
:100E4000CF911F910F91FF900C942D060F931F933C
:100E5000CF93DF93EC01162F8DA981110BC06EBDCE
:100E60000000CE99FECF84E489BBDF91CF911F9122
:100E70000F910895813099F408E0CE0117FF0CC05E
:100E80000E945C06CE010E944606110FCE010E9410
:100E90003B06015091F7E9CF0E945106F3CFEF8D49
:100EA000F8A16083CE01DF91CF911F910F910C9437
:100EB0002D06CF93DF93EC01ED8DFE8D80819CA9F3
:100EC00089238083CE010E942607ED8DFE8D8081CF
:100ED0009BA9892B8083DF91CF9108958F929F9258
:100EE000AF92BF92CF92DF92EF92FF920F931F9338
:100EF000CF93DF93EC0189AD9AAD680F791F8BAD6D
:100F00009CAD480F591F21503109260F371F490149
:100F1000B12CA12CCB01B0E0A0E0DC0199278827FF
:100F2000882A992AAA2ABB2A680181E0C81AD1080E
:100F3000C40ED51EF12CE12C70E060E0BA015527FB
:100F40004427C42AD52AE62AF72A6AE2CE010E945B
:100F50005907B501A401CE010E9467066BE2CE01DC
:100F60000E945907B701A601CE010E9467066CE2F4
:100F7000CE01DF91CF911F910F91FF90EF90DF9005
:100F8000CF90BF90AF909F908F900C945907FC0129
:100F900085A9811104C091A182A19CBD8DBD089538
:100FA0001F93CF93DF93EC01162FE881F981028420
:100FB000F385E02D0995112371F06DADCE010E94EE
:100FC0005907E881F9810688F789E02DCE01DF9184
:100FD000CF911F9109946EADF1CFAF92BF92CF9296
:100FE000DF92EF92FF920F931F93CF93DF93EC0169
:100FF00077FD38C088859985681779079CF557FD76
:1010000031C08A859B854817590764F569017A01C3
:101010005B01E881F9810284F385E02DCE01099519
:10102000E881F98102A4F3A5E02D01E010E021E0C0
:1010300030E0A701B501CE010995B601CE010E94AD
:10104000E106E881F9810688F789E02DCE01DF917C
:10105000CF911F910F91FF90EF90DF90CF90BF90B5
:10106000AF900994DF91CF911F910F91FF90EF9076
:10107000DF90CF90BF90AF9008958F929F92AF92E4
:10108000BF92CF92DF92EF92FF920F931F93CF9375
:10109000DF93EC014901BE2CAF2CE881F98102A459
:1010A000F3A5E02D09959401D8010E94F21D6B0172
:1010B0007C01C114D104E104F10409F480C08DA9BC
:1010C000811118C084E491E0C91AD108E108F1083F
:1010D0009FEFC916D906E906F90609F470C0AEBC3F
:1010E0000000CE99FECF89BBBEBC0000CE99FECFDA
:1010F00089BBE9CF813099F581E0C81AD108E108B0
:10110000F1089FEFC916D906E906F90609F457C098
:101110000A2D18E0CE0107FF1CC00E945C06CE011C
:101120000E944606CE010E943B06000F115091F727
:101130000B2D18E0CE0107FF0FC00E945C06CE0108
:101140000E944606CE010E943B06000F115091F707
:10115000D3CF0E945106E3CF0E945106F0CFAB10CF
:1011600016C0CC0CDD1CEE1CFF1CEF8DF8A1A0827C
:1011700081E0C81AD108E108F1089FEFC916D90625
:10118000E906F906E1F0CE010E942D06F1CF81E0DB
:10119000C81AD108E108F1089FEFC916D906E90677
:1011A000F90669F0EF8DF8A1A082CE010E942D060C
:1011B000EF8DF8A1B082CE010E942D06E8CFDF911D
:1011C000CF911F910F91FF90EF90DF90CF90BF9044
:1011D000AF909F908F9008958F929F92AF92BF9201
:1011E000CF92DF92EF92FF920F931F93CF93DF93F3
:1011F0004C01EB016A01590137FF07C0C901019693
:10120000C80FD91FB194A194B108F401A085B1858C
:10121000CA17DB070CF058C017FF07C0C8010196BA
:10122000C80ED91E119501951109F4018285938587
:10123000C816D9060CF048C0FE01EA0DFB1DAF012F
:101240004150510957FD40C0B601600F711F9B010D
:101250002150310937FD38C0D7FF03C05F01D0E00E
:10126000C0E0D7FE03C08B01D12CC12C4A175B070D
:101270001CF05D01AC1ABD0A281739071CF08C015F
:101280000C191D09D401ED91FC910284F385E02D28
:10129000C40109959501A601BE01C4010E943D0843
:1012A000D401ED91FC910688F789E02DC401DF910E
:1012B000CF911F910F91FF90EF90DF90CF90BF9053
:1012C000AF909F908F900994DF91CF911F910F91D4
:1012D000FF90EF90DF90CF90BF90AF909F908F9056
:1012E0000895EF92FF920F931F932115310529F076
:1012F0000115110511F00E94EC081F910F91FF904C
:10130000EF9008958F929F92AF92BF92CF92DF920B
:10131000EF92FF920F931F93CF93DF935C014B01EA
:101320006A01E90177FD52C0DC0118968D919C910C
:10133000681779070CF04AC0209709F447C037FFB7
:1013400007C0C9010196C80ED91ED195C195D10912
:10135000F50182859385C816D906C4F5A6014C0F00
:101360005D1F9A012150310937FD30C0D7FE03C0FF
:10137000EA01D12CC12C281739071CF0EC01CC193B
:10138000DD09D501ED91FC910284F385E02DC501C5
:10139000099578018E0121E030E0A601B401C50174
:1013A0000E943D08D501ED91FC910688F789E02D5A
:1013B000C501DF91CF911F910F91FF90EF90DF90CA
:1013C000CF90BF90AF909F908F900994DF91CF9175
:1013D0001F910F91FF90EF90DF90CF90BF90AF9053
:1013E0009F908F9008958F929F92AF92BF92CF92CD
:1013F000DF92EF92FF920F931F93CF93DF935C01E5
:101400006B014A01E90157FD52C0DC011A968D912A
:101410009C91481759070CF04AC0209709F447C01F
:1014200037FF07C0C9010196C80ED91ED195C195D5
:10143000D109F50180859185C816D906C4F5A601A4
:101440004C0F5D1F9A012150310937FD30C0D7FE86
:1014500003C0EA01D12CC12C281739071CF0EC017C
:10146000CC19DD09D501ED91FC910284F385E02DC5
:10147000C5010995780101E010E09E01A401B601C3
:10148000C5010E943D08D501ED91FC910688F789C0
:10149000E02DC501DF91CF911F910F91FF90EF904B
:1014A000DF90CF90BF90AF909F908F900994DF9185
:1014B000CF911F910F91FF90EF90DF90CF90BF9051
:1014C000AF909F908F900895EF92FF920F931F938C
:1014D000CF93DF9377FD32C0DC011896ED91FC913C
:1014E0006E177F075CF52115310541F137FF07C005
:1014F000F90131964E0F5F1F319521953109DC01BD
:101500001A96ED91FC914E175F07C4F4EA01C20FE1
:10151000D31FDE011197B7FD11C057FF03C09E0115
:1015200050E040E0AE17BF071CF09F01241B350BB5
:101530007801890121E030E00E943D08DF91CF91E0
:101540001F910F91FF90EF900895EF92FF920F93EC
:101550001F93CF93DF9357FD31C0DC011A96ED91B5
:10156000FC914E175F0754F52115310539F137FF0E
:1015700007C0F90131966E0F7F1F31952195310912
:10158000DC011896ED91FC916E177F07BCF4EB011E
:10159000C20FD31FDE011197B7FD10C077FF03C044
:1015A0009E0170E060E0AE17BF071CF09F01261B94
:1015B000370B780101E010E00E943D08DF91CF91E8
:1015C0001F910F91FF90EF9008958F929F92AF928D
:1015D000BF92CF92DF92EF92FF920F931F93CF9320
:1015E000DF9347012115310509F44BC001151105A1
:1015F00009F447C037FF07C0F90131966E0F7F1F0E
:10160000319521953109DC011896AD90BC906A1591
:101610007B05BCF517FF07C0F80131964E0F5F1F21
:10162000119501951109DC011A96ED91FC914E1767
:101630005F073CF56B01C20ED31EE6012197D7FD73
:1016400020C07A01E00EF11ED7011197B7FD19C035
:1016500077FF03C0960170E060E057FF03C0870189
:1016600050E040E0CA15DB051CF09501261B370B46
:10167000AE17BF071CF08F01041B150B74010E94ED
:101680003D08DF91CF911F910F91FF90EF90DF9078
:10169000CF90BF90AF909F908F900895EF92FF9260
:1016A0000F931F93CF93DF93EC0177FD22C08885C2
:1016B000998568177907ECF457FD1BC08A859B85CF
:1016C00048175907B4F47901E881F98102A4F3A518
:1016D000E02D01E010E021E030E0CE010995B701F6
:1016E000CE01DF91CF911F910F91FF90EF900C945D
:1016F000E106DF91CF911F910F91FF90EF90089538
:10170000CF93DF93EC010E94C7078FA987FD06C026
:10171000EB8DFC8D80819AA989238083DF91CF9105
:1017200008950895AF92BF92CF92DF92EF92FF9209
:101730000F931F93CF93DF93BC016F5F7F4FFC012B
:101740001491115008F47AC0FB01D4917B01F2E0AE
:10175000EF0EF11CFB0131960491C02FCF778AEF79
:1017600092E00E94C7078091310387FD09C0E09194
:101770001503F0911603808190912C0389238083B7
:10178000E0911703F0911803808190912E03892333
:1017900080836D2F8AEF92E00E942607E091170365
:1017A000F0911803808190912D03892B8083F7019C
:1017B000B12CA12CD0E0AC16BD06F4F480912F031F
:1017C0006F01823081F480912A03882361F0619156
:1017D00071916F018AEF92E00E94E106EFEFAE1A7D
:1017E000BE0AF601E8CF8FEFC81AD80A64918AEFD3
:1017F00092E00E942607F2CF8091310387FD09C055
:10180000E0911503F0911603808190912B03892BB1
:101810008083B7016C0F7D1F07FF93CFEB012196EB
:10182000FB01649170E06F3F710511F464EF71E0AA
:1018300090E080E00E944805BE0183CFDF91CF9108
:101840001F910F91FF90EF90DF90CF90BF90AF90DE
:1018500008950F931F93CF93DF93EC018B010E94A8
:10186000C7078FA987FD06C0EB8DFC8D80819AA9E3
:1018700089238083ED8DFE8D80819CA989238083BF
:1018800066E3CE010E942607ED8DFE8D80819BA927
:10189000892B80838DA9F801823091F06081CE017F
:1018A0000E9426078FA987FD06C0EB8DFC8D8081E5
:1018B00099A9892B8083DF91CF911F910F91089572
:1018C00088A9882359F360817181CE010E94E106C5
:1018D000E9CFCF93DF931F92CDB7DEB7FC0119821A
:1018E0006370668BDC01AD5BBF4F2C9130E01196CD
:1018F0008C9190E0623031F06330C9F0613081F05A
:1019000040EC498332AF21AF94AF83AFBE016F5F2C
:101910007F4FCF010E94290C0F90DF91CF91089546
:1019200040EA498334AF23AF92AF81AFEFCF40E6B7
:10193000F8CFCF93DF931F92CDB7DEB7FC011982AA
:101940006370668BDC01AA5BBF4F8C91982F9B7FE5
:10195000AF014C5B5F4F913031F493E0623008F09F
:1019600091E0DA019C939F012D5B3F4F623009F4B7
:101970004CC0633009F45BC0613069F1823021F002
:1019800098EC843009F046C090EC99838130D1F412
:1019900080E890E09387828791878087D9018C9136
:1019A00090E092AF81AFDA018C9190E094AF83AF79
:1019B000BE016F5F7F4FCF010E94290C0F90DF9116
:1019C000CF910895843051F580EA90E09387828723
:1019D00080E590E0E1CF823019F098EA843071F52B
:1019E00090EA99838130B1F580E890E09187808713
:1019F00093878287D9018C9190E094AF83AFDA010D
:101A00008C9190E092AF81AFD3CF823049F0843097
:101A1000D9F298E09983813009F4BACF8630A1F2E7
:101A200080EA90E09387828780E890E0B5CF8230AB
:101A300019F098E6843011F490E6D3CF9983813081
:101A400099F2863051F480EA90E09187808780E5B2
:101A500090E0CECF8430B9F3F4CF80EA90E0918764
:101A6000808780E890E0C4CFFC0187A987FD06C08D
:101A7000A38DB48D9C9181A9892B8C9308952F926D
:101A80003F924F925F926F927F928F929F92AF920E
:101A9000BF92CF92DF92EF92FF920F931F93CF935B
:101AA000DF93CDB7DEB728970FB6F894DEBF0FBE31
:101AB000CDBF9C838B8378876F833A018AEF92E056
:101AC0000E94800B2F813885220F331F2F5F3F4FDD
:101AD0004B815C818F819885481B590B830167E09E
:101AE00070E08AEF92E00E94640A81E090E02C01AD
:101AF0002F813885421A530AC90191958195910920
:101B00009C01220F331F3A832983F12CE12C2224DC
:101B10002394312C8B819C8101969E838D832F8110
:101B20003885E216F3060CF05EC0CF80D88457FCEF
:101B30000BC0690131E0C31AD10889819A810296EC
:101B40009A838983480E591E9FEFE91AF90A22E009
:101B5000220E311C420C531CCE14DF04F4F046015B
:101B6000880C991C3FEF831A930A83019401AB8080
:101B7000BC80AC18BD08A501B701695F7F4F8AEF33
:101B800092E00E94640A9401A50167E070E06E197A
:101B90007F098AEF92E00E94640A8F8198858C15F4
:101BA0009D05F1F0BC01695F7F4F8301410192E027
:101BB000891A91089401AD80BE80AE18BF08A501B6
:101BC0008AEF92E00E94640A67E070E02F81388516
:101BD000621B730B9401A5018AEF92E00E94640AD4
:101BE000D886CF829CCF8AEF92E028960FB6F894E1
:101BF000DEBF0FBECDBFDF91CF911F910F91FF9040
:101C0000EF90DF90CF90BF90AF909F908F907F909C
:101C10006F905F904F903F902F900C94340DEF9207
:101C2000FF920F931F93CF93DF938C0183E0E82EF5
:101C3000F12CC7E5D1E0409107015091080168817E
:101C40007981C8010E943F0D66EA70E080E090E073
:101C50000E9448056881798150E040E0C8010E94F7
:101C60003F0D40910B0150910C0168817981C801B1
:101C70000E943F0D66EA70E080E090E00E94480517
:101C80006991799150E040E0C8010E943F0D81E0E8
:101C9000CB35D80781F681E0E81AF10851F6DF91DB
:101CA000CF911F910F91FF90EF9008952F923F9247
:101CB0004F925F926F927F928F929F92AF92BF925C
:101CC000CF92DF92EF92FF920F931F93CF93DF9308
:101CD000CDB7DEB72C970FB6F894DEBF0FBECDBFE1
:101CE0009E838D831B016A018AEF92E00E94800B24
:101CF0002D813E8122193309C60182199309412C95
:101D0000512C3201812C912C54014AE1E42EF12C0A
:101D1000A901330F660B770B4F83588769877A8742
:101D20009C01990F440B550B29833A834B835C83A9
:101D3000C501B40128E030E040E050E00E94CD1D34
:101D4000B101620F731F7C876B87C301B20120E171
:101D500030E040E050E00E94CD1D220D331D8F8108
:101D60009885A985BA85880E991EAA1EBB1E498131
:101D70005A816B817C81440E551E661E771E6B85D1
:101D80007C852617370734F49B858C853C872B8709
:101D9000292F382F8B859C85281B390B2F5F3F4FB0
:101DA00006EC16EBA701BC018AEF92E00E94A50A9F
:101DB0009FEFE91AF90AA2E2EA16F10409F0B8CF96
:101DC0002D813E81C21AD30AA601DD0C660B770B6A
:101DD0004F83588769877A8749805A806B807C80D7
:101DE00083E0440C551C661C771C8A95D1F7812C26
:101DF000912C540192E2E92EF12CC501B40128E0A6
:101E000030E040E050E00E94CD1D6D817E81620F88
:101E1000731F7C876B87C301B20120E130E040E093
:101E200050E00E94CD1D220D331D8F819885A9851C
:101E3000BA85880E991EAA1EBB1E49815A816B81E4
:101E40007C81440E551E661E771E6B857C85261789
:101E5000370734F49B858C853C872B87292F382FB7
:101E60008B859C85281B390B2F5F3F4F06EC16EBAB
:101E7000A701BC018AEF92E00E94A50A9FEFE91A30
:101E8000F90AABE2EA16F10409F0B7CF8AEF92E063
:101E90002C960FB6F894DEBF0FBECDBFDF91CF9169
:101EA0001F910F91FF90EF90DF90CF90BF90AF9078
:101EB0009F908F907F906F905F904F903F902F906A
:101EC0000C94340D0895FC016370668B84819581B8
:101ED00026813781613039F0633029F0918780871E
:101EE00033872287089531872087938782870895D3
:101EF0002F923F924F925F926F927F928F929F921A
:101F0000AF92BF92CF92DF92EF92FF920F931F9307
:101F1000CF93DF93CDB7DEB76A970FB6F894DEBFE5
:101F20000FBECDBF9A8F898F7A8369834A01D22EE3
:101F300018870F833701BC2CDC0159962D913C91F9
:101F40005A972115310509F015C118968D919C916C
:101F50001997681779070CF0D7C11A968D919C9143
:101F6000481759070CF0D0C14C2C512CB6E0CB9E31
:101F7000600D711D11247C876B87161617060CF0F7
:101F8000C3C1EA2DF0E0FA87E98793E0EE0FFF1F67
:101F90009A95E1F7F88BEF87CF01840F951F1816FC
:101FA00019060CF0B1C1A98DBA8D58968C9181118A
:101FB00004C0BFEABD1508F4D394A98DBA8DED9184
:101FC000FC9111970284F385E02DCD010995B5E0D0
:101FD000DB9EC0011124E981FA81FC83EB83312C63
:101FE000212C9C0128583F4F388F2F8B4A2D50E0D1
:101FF0005E8B4D8BEF89F88DE20DF31D44919E822F
:102000008D82D12CC12C69817A81620D731D7A8BEE
:10201000698B842F90E09C8B8B8BE98DFA8DA0814E
:10202000B18140FF82C0F1E0BF126FC0AF126DC03E
:102030001C96ED91FC912F813885A4014C0D5D1DFE
:1020400069897A89898D9A8D0995EB89FC89F5953D
:10205000E7954E2F5FEFC51AD50A6D817E818D8978
:102060009E89680F791F7E836D8398E0C916D1041D
:1020700081F6AFEF2A1A3A0AEB81FC81E40DF51DD7
:10208000FC83EB83F5E02F16310409F0B3CF2F81E9
:10209000388526153705B9F0A98DBA8DED91FC91DB
:1020A000B1E0BB1257C0AB1255C069817A816B5F3A
:1020B0007F4F0088F189E02D830128E030E0A40102
:1020C000898D9A8D0995A98DBA8DED91FC91119705
:1020D0000688F789E02DCD016A960FB6F894DEBF29
:1020E0000FBECDBFDF91CF911F910F91FF90EF9069
:1020F000DF90CF90BF90AF909F908F907F906F9028
:102100005F904F903F902F9009941E96ED91FC9117
:10211000EF80F88409851A8592014D815E816B817B
:102120007C81898D9A8D099590CF2F8138852615D0
:10213000370509F48ACF31E0B31207C0A31205C0F6
:102140001C96ED91FC91930178CF1E96ED91FC9138
:102150007301E0CF6B857C85641975090684F7856A
:10216000E02D73010F8518899201A401898D9A8D44
:102170000995A9CFF90134969491329745915491DC
:10218000D91AB7E0DB9E400D511D1124F9012591AC
:1021900034913C8B2B8BFA0125903490FA013296C6
:1021A000749031963491398B329664903196449084
:1021B00041E04C1518F04A1508F07FC0662D062C3A
:1021C000000C770B7C836B83842D042C000C990B03
:1021D0009E838D83A98DBA8DED91FC911197028418
:1021E000F385E02DCD010995512CD12CC12CEA2D80
:1021F000F0E0FA87E9872B2D30E03C872B87A4019C
:10220000440D511D47FC5A95588F4F8B69817A8137
:10221000660D711D67FC7A957E876D877989C71673
:1022200008F051CF2C2D30E04D815E81420F531FBD
:10223000A985BA854A9FC0014B9F900D5A9F900D6A
:102240001124FC01E80DF91DF88BEF87852D612C19
:102250004F89588D420F531F5E8B4D8B671408F0CA
:1022600050C044244394480E877041F4C101019644
:10227000EB89FC89E20DF31DD4901C01D7FE19C037
:10228000A98DBA8DED91FC91662D70E0B1E0BB1285
:1022900019C0AB1217C02D853E85620F731F0484D1
:1022A000F585E02D2F8138854D895E89898D9A8D40
:1022B0000995DD0C6394842DD1CF1E821D821C8272
:1022C0001B8288CF4B815C81640F751FAB85BC85F9
:1022D0006A9FC0016B9F900D7A9F900D11246981B8
:1022E0007A81680F791F0684F785E02DEF80F884E6
:1022F00009851A859D014F855889898D9A8D099583
:10230000D8CF570CC3948ACF6A960FB6F894DEBF25
:102310000FBECDBFDF91CF911F910F91FF90EF9036
:10232000DF90CF90BF90AF909F908F907F906F90F5
:102330005F904F903F902F9008958F929F92AF9211
:10234000CF92EF92FF920F931F93CF93DF93EC0105
:10235000262F898D9A8D009709F051C06A30D1F4EB
:102360001D861C868D8948E0849F900111248E85EE
:102370009F85820F931F9F878E8781E090E0DF917A
:10238000CF911F910F91FF90EF90CF90AF909F90C2
:102390008F9008956D3089F3CC88AD888F8988231C
:1023A000C1F08C859D8536E0C39E800D911D112462
:1023B000488559854817590764F44E855F851D8601
:1023C0001C8638E0A39EC0011124840F951F9F87AF
:1023D0008E87EA88FB88088919894E855F856C8518
:1023E0007D85CE010E94780F2C898C859D8546E0E5
:1023F000249F800D911D11249D878C87BECF6A304C
:1024000069F41D861C86FC013896E4912D898E8521
:102410009F85E29F800D911D1124ADCF6D3009F491
:10242000ACCFFC0134963491631708F4A6CF3296F2
:10243000E491E61708F4A1CFFC01329685909490C0
:10244000462F431B342F47E0349F800C911C1124EE
:10245000F401329634913196E4913323A9F1EE23BD
:1024600099F1CC88F4013596E491AD884F894423E5
:1024700001F10E2E000CFF0BE30FF11DCE9EA0010B
:10248000CF9E500D11246C857D85460F571F6885A2
:102490007985641775076CF44E855F851D861C86EB
:1024A000FC013896E491AE9E400D511D11245F87CA
:1024B0004E87EA88FB88088919894E855F856C8577
:1024C0007D85CE010E94780FF4013496E4912C8929
:1024D0008C859D85E29F800D911D11248DCF6F927B
:1024E0007F928F929F92AF92BF92CF92DF92EF92A4
:1024F000FF920F931F93CF93DF93EC016B015A016F
:1025000039014801E881F9810284F385E02D0995BC
:10251000E881F9810288F389E02D87019301A50103
:10252000B601CE010995A501480D591D415051092B
:10253000E881F9810288F389E02D9301B601CE018B
:102540000995E881F9810088F189E02D9401A501C0
:10255000B601CE010995C60CD71CB60161507109B0
:10256000E881F9810088F189E02D9401A501CE016F
:102570000995E881F9810688F789E02DCE01DF9180
:10258000CF911F910F91FF90EF90DF90CF90BF9070
:10259000AF909F908F907F906F9009946F927F92F1
:1025A0008F929F92AF92BF92CF92DF92EF92FF9263
:1025B0000F931F93CF93DF935C01EB016A014901F5
:1025C00038018701DC01ED91FC916217730719F561
:1025D000641675062CF0962D872D3A01C92ED82E3B
:1025E0009601261937092F5F3F4F048CF58DE02D9A
:1025F000A301BE01C5010995DF91CF911F910F91F4
:10260000FF90EF90DF90CF90BF90AF909F908F9012
:102610007F906F9008954615570591F42617370758
:1026200024F0892D4B01C22FD82F9E01281939097A
:102630002F5F3F4F068CF78DE02DA601B401DACF56
:102640000284F385E02D0995D501ED91FC91048874
:10265000F589E02D83019401A601BE01C50109950C
:10266000D501ED91FC910688F789E02DC501DF9138
:10267000CF911F910F91FF90EF90DF90CF90BF907F
:10268000AF909F908F907F906F900994EF92FF9200
:102690000F931F93DC011A960D911C911B971896AE
:1026A0002D913C911997ED91FC9100A0F1A1E02DA5
:1026B0007B0150E040E070E060E009951F910F91D0
:1026C000FF90EF9008954F925F926F927F928F925A
:1026D0009F92AF92BF92CF92DF92EF92FF920F93B1
:1026E0001F93CF93DF936C012B015A0139014801ED
:1026F000DC01ED91FC910284F385E02D0995E20166
:10270000640C751CD601ED91FC91C615D7055CF4DF
:102710000088F189E02D87019401A501BE01C60161
:1027200009952196EFCF0688F789E02DC601DF9144
:10273000CF911F910F91FF90EF90DF90CF90BF90BE
:10274000AF909F908F907F906F905F904F90099483
:102750008F929F92AF92BF92CF92DF92EF92FF92B1
:102760000F931F93CF93DF93EC015B014A01690143
:10277000E881F9810284F385E02D099595012C0DFE
:102780003D1D21503109E881F9810488F589E02D4A
:1027900078018401A401B501CE010995E881F98190
:1027A0000688F789E02DCE01DF91CF911F910F911F
:1027B000FF90EF90DF90CF90BF90AF909F908F9061
:1027C00009948F929F92AF92BF92CF92DF92EF9235
:1027D000FF920F931F93CF93DF93EC015B014A01AC
:1027E00069017801E881F9810284F385E02D09957A
:1027F000C80CD91C860101501109E881F9810488AF
:10280000F589E02D9501A401B501CE010995E88176
:10281000F9810688F789E02DCE01DF91CF911F91D4
:102820000F91FF90EF90DF90CF90BF90AF909F906F
:102830008F900994EF92FF920F931F93DC01ED911B
:10284000FC9100A0F1A1E02D09951F910F91FF903F
:10285000EF9008950F931F93DC01ED91FC91068C8E
:10286000F78DE02D09951F910F9108950F931F93F8
:10287000DC01ED91FC91048CF58DE02D09951F9103
:102880000F910895DC01ED91FC910084F185E02D1C
:1028900009942F923F924F925F926F927F928F9204
:1028A0009F92AF92BF92CF92DF92EF92FF920F93DF
:1028B0001F93CF93DF9300D000D000D0CDB7DEB709
:1028C0003C016A013E832D83FC82EB825801A41AED
:1028D000B50AB7FE03C0B194A194B1088D809E8063
:1028E000861A970A97FE03C09194819491088A14DE
:1028F0009B045CF0902F812F0D811E819D838E8320
:102900009C2D8D2D6B01692F782F0C151D055CF00A
:102910009D818E817E836D83692F782F902F812FEB
:102920008601C92ED82E1601201A310A2B012D81BD
:102930003E81421A530A57FE03C0519441945108F4
:10294000710137FE03C03FEFE31AF30AF594E794F1
:102950008D819E81861797075CF5A1E0B0E0BA8370
:10296000A983C016D1064CF1D301ED91FC910484EA
:10297000F585E02D2B813C81A8016D817E818A1433
:102980009B041CF04D815E81B801C3010995E418D8
:10299000F508F7FE0AC02D813E8189819A81280FB2
:1029A000391F3E832D83E20CF31C0F5F1F4FD9CFDD
:1029B0002FEF3FEF3A832983D4CF26960FB6F894B2
:1029C000DEBF0FBECDBFDF91CF911F910F91FF9062
:1029D000EF90DF90CF90BF90AF909F908F907F90BF
:1029E0006F905F904F903F902F900895089590E0E2
:1029F00080E00895CF93C82F0E947704892B69F453
:102A00008C2F0E947704892B41F48C2F0E9477042D
:102A1000892BD9F381E0CF91089580E0FCCF42E08B
:102A200050E063EA71E08AEF92E00C94AF05CF9337
:102A3000DF93FC0101900020E9F73197AF01481BBB
:102A4000590BBC018AEF92E00E94AF05EC010E9495
:102A50000F158C0F9D1FDF91CF9108950E940520C7
:102A60000F931F93CF93DF93EC0188819981009797
:102A700059F02A813B812617370730F081E0DF913A
:102A8000CF911F910F9108958B016F5F7F4F0E942F
:102A9000481F009759F0998388831B830A832C81F0
:102AA0003D81232B59F7FC011082E8CF80E0E7CF6E
:102AB000EF92FF920F931F93CF93DF93EC017B0173
:102AC0008A01BA010E94301528813981811114C010
:102AD0002115310519F0C9010E94BF1E1982188203
:102AE0001D821C821B821A82CE01DF91CF911F9121
:102AF0000F91FF90EF9008951D830C83B701C901DA
:102B00000E941320F1CFCF92DF92EF92FF920F93AA
:102B10001F93CF93DF93EC016A017B01C114D104B1
:102B2000E104F10439F4C12C48E4D42E48EEE42E3B
:102B3000FF24F394FE01FF96C082D182E282F382E9
:102B400081E28DAF80E28EAF369610818FA987FD2E
:102B500007C061E00E94CE0461E08FA90E94A0043A
:102B600061E088AD0E94CE0461E088AD0E94A004BF
:102B70008DA9811182C040E054E264EF70E0C41678
:102B8000D506E606F70640F476956795579547957E
:102B90008F5F8630A1F787E0212F2C702065982F5A
:102BA0009695922B99A3809581708AA3812F90E0AE
:102BB000B0E0A0E08BA39CA3ADA3BEA31FB7F89485
:102BC00080914802811127C0EBE4F6E08491E3E2B2
:102BD000F6E09491E82FF0E0EE0FFF1FE551FA4F79
:102BE000A591B491EC91E92321F461E08AE00E947F
:102BF000A00461E08AE00E94CE048CB580618CBDA7
:102C00008CB580648CBD61E08DE00E94CE0461E0F3
:102C10008BE00E94CE04809148028F5F809348022F
:102C20001FBF8EA987FD75C061E00E94CE0461E0E0
:102C30008EA90E94A00464E670E080E090E00E940B
:102C4000480560E08EA90E94A00464E670E080E080
:102C500090E00E94480561E08EA90E94A00468EC03
:102C600070E080E090E0DF91CF911F910F91FF9095
:102C7000EF90DF90CF900C94480501E416E0F12C22
:102C80008130B9F461E08AA50E94CE0460E08AA593
:102C90000E94A00461E08CA50E94CE0460E08CA597
:102CA0000E94A0048BA587FDBCCF60E00E94CE04EB
:102CB000B8CFF8018491E82FF0E0EE0FFF1FEB5C36
:102CC000F94F859194912F8D38A12817390741F438
:102CD00061E08F2D0E94CE0460E08F2D0E94A00441
:102CE000F3940F5F1F4FF4E1FF12E3CF61E08EA575
:102CF0000E94CE0461E08EA50E94A0048FA587FDEE
:102D000090CF61E00E94CE0461E08FA50E94A004F4
:102D100088CFDF91CF911F910F91FF90EF90DF90BF
:102D2000CF9008951F93CF93DF9385ED8093BC00E0
:102D30008091DA019091DB01A091DC01B091DD017D
:102D40000796A11DB11D23E0B695A7959795879588
:102D50002A95D1F72091BC0024FD03C010922202D5
:102D600052C04091DA015091DB016091DC01709119
:102D7000DD01452B462B472B69F30097A105B105D3
:102D800041F025E52A95F1F700000197A109B10965
:102D9000E1CF8091D901C1E0C093D801882399F196
:102DA000D091B8001091BA008091BC008A7B8093CA
:102DB000BC0060E082E10E94A00460E083E10E9428
:102DC000A00410922202C09324021092230261E018
:102DD00082E10E94A00461E083E10E94A00480914E
:102DE000B9008E7F8093B9008091B9008D7F809368
:102DF000B90088E98093B80085E48093BC00109303
:102E0000BA00D093B800DF91CF911F910895CF926F
:102E1000DF92EF92FF920F931F93CF93DF93CDB783
:102E2000DEB768970FB6F894DEBF0FBECDBF66EA77
:102E3000E62E6BEFF62E0AE010E028E730E049E1DD
:102E400050E061E070E08AEF92E00E94EC0875E2E9
:102E5000E72E73EEF72E28E730E043E250E061E022
:102E600070E08AEF92E00E94EC08E4E4EE2EEAE9DA
:102E7000FE2E26E430E04DE250E061E070E08AEFA3
:102E800092E00E94EC08F3EAEF2EF1E7FF2E26E431
:102E900030E047E350E061E070E08AEF92E00E94AA
:102EA000EC08A2E4EA2EA1E5FA2E26E430E041E4A3
:102EB00050E061E070E08AEF92E00E94EC088FEF52
:102EC0009FEF90930D0380930C0390930B038093DB
:102ED0000A0381E080930E0380930F0304E110E066
:102EE00010930703009306038BE190E0909309038E
:102EF0008093080386EA91E00E9417151093070358
:102F00000093060385E290E0909309038093080301
:102F100080910401909105011C8A1B8A1E8A1D8ADA
:102F2000188E1F8A4AE08E010F5F1F4FB8010E9462
:102F3000521DF80101900020E9F73197AF01401BC5
:102F4000510BB801CE0143960E9458151A8219827E
:102F50001C821B821E821D8248E050E063EB71E000
:102F6000C8010E945815CB88DC88C114D10409F42B
:102F7000EBC0EF88F88CE114F104B1F08D819E81F3
:102F8000E80EF91EB701C8010E943015882309F424
:102F9000DBC029813A818D819E81B601820F931F0A
:102FA0000E941320FE82ED824D815E8169817A81CB
:102FB0008AEF92E00E94AF050E940F1589819A81E5
:102FC000009711F00E94BF1E8B899C89009711F019
:102FD0000E94BF1E04E110E0109307030093060354
:102FE0008FE290E090930903809308038CEB91E0CB
:102FF0000E941715109307030093060389E390E0DE
:10300000909309038093080385EC91E00E941715C3
:10301000109307030093060383E490E09093090361
:10302000809308038DEC91E00E941715809149026E
:10303000882309F496C049E650E069E670E088E725
:1030400090E00E94560E80914D02882311F181E399
:1030500090E00E940F0E45E2E42E43EEF42E0AE0CB
:1030600010E02FE030E043E250E061E070E08AEFF2
:1030700092E00E94EC0854E4E52E5AE9F52E2FE088
:1030800030E04DE250E061E070E08AEF92E00E94B3
:10309000EC0880914C02882311F18BE390E00E94B0
:1030A0000F0E24E4E22E2AE9F22E0AE010E02FE0CF
:1030B00030E04DE250E061E070E08AEF92E00E9483
:1030C000EC0833EAE32E31E7F32E2FE030E047E35C
:1030D00050E061E070E08AEF92E00E94EC0880919D
:1030E0004B02882311F185E490E00E940F0E83EAE1
:1030F000E82E81E7F82E0AE010E02FE030E047E309
:1031000050E061E070E08AEF92E00E94EC0892E407
:10311000E92E91E5F92E2FE030E041E450E061E046
:1031200070E08AEF92E00E94EC0868960FB6F8947F
:10313000DEBF0FBECDBFDF91CF911F910F91FF90EA
:10314000EF90DF90CF90089589819A81009711F0D8
:103150000E94BF1E1A8219821E821D821C821B823F
:1031600023CF48E750E068E770E089E690E069CF58
:103170001F920F920FB60F9211242F933F938F93AC
:103180009F93AF93BF938091540290915502A09169
:103190005602B09157023091530220E4230F2D378D
:1031A00028F023EC230F0196A11DB11D209353029B
:1031B0008093540290935502A0935602B093570205
:1031C0008091580290915902A0915A02B0915B02ED
:1031D0000196A11DB11D8093580290935902A093AE
:1031E0005A02B0935B02BF91AF919F918F913F9133
:1031F0002F910F900FBE0F901F9018951F920F9256
:103200000FB60F9211242F933F934F935F936F93B9
:103210007F938F939F93AF93BF93EF93FF93E0912F
:103220000201F09103010995FF91EF91BF91AF91D8
:103230009F918F917F916F915F914F913F912F91CE
:103240000F900FBE0F901F9018951F920F920FB600
:103250000F9211242F933F934F935F936F937F931C
:103260008F939F93AF93BF93EF93FF93E0910001F0
:10327000F09101010995FF91EF91BF91AF919F915D
:103280008F917F916F915F914F913F912F910F900F
:103290000FBE0F901F9018951F920F920FB60F92AE
:1032A00011242F933F934F935F936F937F938F934B
:1032B0009F93AF93BF93EF93FF938CE592E00E94AF
:1032C0009703FF91EF91BF91AF919F918F917F9164
:1032D0006F915F914F913F912F910F900FBE0F9083
:1032E0001F9018951F920F920FB60F9211242F93D3
:1032F0008F939F93EF93FF93E0916C02F0916D0297
:103300008081E0917202F091730282FD1BC0908176
:10331000809175028F5F8F7320917602821741F042
:10332000E0917502F0E0E45AFD4F958F80937502AD
:10333000FF91EF919F918F912F910F900FBE0F9062
:103340001F9018958081F4CF1F920F920FB60F92A5
:1033500011242F933F934F935F936F937F938F939A
:103360009F93AF93BF93EF93FF938091B900887FB2
:10337000803609F44AC0F0F5883209F4A5C018F582
:10338000803109F499C0B8F4882309F4F5C0883075
:1033900009F492C0FF91EF91BF91AF919F918F91EE
:1033A0007F916F915F914F913F912F910F900FBE41
:1033B0000F901F901895883109F486C0803251F71C
:1033C0008093210214C0803409F49BC040F4803300
:1033D000B9F38833F9F68093210285ECAEC08035CD
:1033E00009F483C0883509F494C0883499F60E94A2
:1033F0009216D0CF883909F48AC038F5883729F079
:1034000050F4883611F0803729F683E08093220249
:103410001092200255C0883809F479C0803919F01B
:10342000803809F0B7CF80912002803208F06FC059
:10343000E091200281E08E0F809320028091BB00FA
:10344000F0E0E050FE4F80833BC0803B39F0D0F489
:10345000803A09F477C0883A09F09CCF84E08093E1
:1034600022021092FF011092FE01F0E0E0E00995C7
:103470008091FE0181110FC081E08093FE011092C6
:10348000DE0109C0803C09F4A8CF883C09F4A5CF2F
:10349000883B09F07FCFE091FF0181E08E0F8093A0
:1034A000FF01F0E0E252FE4F80818093BB009091DB
:1034B000FF018091FE0129C0809147028093BB00EB
:1034C00085EC8093BC0066CF9091460280914502C6
:1034D000981758F5E091460281E08E0F80934602DE
:1034E000F0E0EB5DFD4F8081E9CFE091460281E0A5
:1034F0008E0F809346028091BB00F0E0EB5DFD4FA4
:10350000808390914602809145029817C8F285E821
:10351000D8CFE091460281E08E0F809346028091E1
:10352000BB00F0E0EB5DFD4F8083809124028111B0
:103530005ECF81E08093230284EA8093BC001092E6
:10354000220228CF85EC8093BC0010922202809149
:103550002002803230F4E0912002F0E0E050FE4F93
:1035600010826091200270E080E092E0F0E0E0E004
:103570000995109220020ECF1092210238CFECE56F
:10358000F2E01382128288EE93E0A0E0B0E0848340
:103590009583A683B78385E691E09183808385EC4C
:1035A00090E09587848784EC90E09787868780EC0D
:1035B00090E0918B808B81EC90E0938B828B82ECFE
:1035C00090E0958B848B86EC90E0978B868B118EA8
:1035D000128E138E148EAAEFB2E013961C921E92D6
:1035E000129720E830E015963C932E93149780EACA
:1035F00090E017969C938E93169719963C932E9372
:1036000018971B969C938E931A9756961C925697D2
:103610001D961C921E921C971F961C921E921E971E
:1036200081E055968C93559754968C9354972FEF31
:103630003FEF53963C932E93529751963C932E9383
:10364000509757968C93579758961C9258975A961E
:103650001C921E925997D5961C92D59788E0D696C3
:103660008C93D6978AE0D7968C93D79789E0D89693
:103670008C93D897DA961C921E92D997DC961C925E
:103680001E92DB97DD961C92DD97DE961C92DE97EC
:103690001092390310923A0310923B0310923C03AC
:1036A00089EF92E090969C938E935F97EAE4F6E020
:1036B000E491F0E0EE0FFF1FEB5CF94F85919491E0
:1036C0005E969C938E935D97E2E2F6E08491D396AA
:1036D0008C93D397EBE4F6E0E491F0E0EE0FFF1F5C
:1036E000EB5CF94F259134915C963C932E935B975C
:1036F000E3E2F6E0E491D196EC93D197E095D2968F
:10370000EC93D297E82FE095D496EC93D49710924F
:103710003D0310923E0310923F0387E791E08D93A3
:103720009C9308958091F20080618EBB80E8809325
:10373000F2009EB39093F20080936100C1E0C093C9
:1037400061009091F2009F799EBB8093F2009EB33E
:103750009093F2009091F2009B7F9EBB8093F200C9
:103760009EB39093F2008093610010926100789470
:1037700084B5826084BD84B5816084BD85B5826076
:1037800085BD85B5816085BD80916E008160809327
:103790006E00109281008091810082608093810090
:1037A00080918100816080938100809180008160A0
:1037B000809380008091B10084608093B1008091FB
:1037C000B00081608093B00080919100826080930E
:1037D0009100809191008160809391008091900090
:1037E00081608093900080917A00846080937A0059
:1037F00080917A008D7F80937A0080917A008E7F0D
:1038000080937A0080917A00806880937A00109289
:10381000C10068EB7BE080E090E00E94480560E03A
:103820008CE00E94CE0460E08CE00E94A00460E086
:1038300082E00E94CE0460E084E00E94CE0462E058
:1038400083E00E94CE0462E085E00E94CE0462E044
:1038500086E00E94CE0460E083E00E94A00468EE4F
:1038600073E080E090E00E94480561E08CE00E94F7
:10387000A00487E895E09093030180930201809172
:103880006900837F886080936900E99A81E995E007
:103890009093010180930001809169008C7F816089
:1038A00080936900E89A68EE73E080E090E00E94FF
:1038B000480540E050E0BA018AEF92E00E9483158B
:1038C00080EB95E00E94920B83EA95E00E94920BB8
:1038D00082E080933D03C0933E0388E795E00E9419
:1038E000920B1092400360E08AEF92E00E94990CE4
:1038F00061E08AEF92E00E94D00763E08AEF92E0F5
:103900000E94990C70E060E08AEF92E00E944613FA
:10391000C093110368EE73E080E090E00E944805D8
:103920000E947B0568577C4E70934F0260934E0255
:103930000E94071780E0E82E80E0F82E10925202D5
:10394000109251021092500280914D028111C09349
:10395000520285E090E00E94FA14882321F0C0937F
:103960004C02C093520286E090E00E94FA14882331
:1039700021F0C0934B02C093520280914A028823E7
:1039800009F43DC080914A0221E030E0181614F499
:103990002FEF3FEF8091040190910501820F931F5B
:1039A000909305018093040190914A0281E01916D9
:1039B0000CF480E08093490280910401909105010C
:1039C0001816190644F4809104019091050183367C
:1039D00091050CF061C080910401909105011816C9
:1039E00019060CF05CC08091040190910501909340
:1039F00005018093040110924A02C0935202809103
:103A00005202882351F0109252020E94071710921E
:103A10004D0210924C0210924B020E947B050091C5
:103A20004E0210914F02101611068CF40E947B0575
:103A30006017710764F00E947B0568577C4E709395
:103A40004F0260934E02C093060110925202809181
:103A5000060181111092060100915002109151024D
:103A60000F5F1F4F10935102009350026AE070E005
:103A700080E090E00E944805083E13400CF464CFBB
:103A8000E114F10409F45ACF0E942604882309F4B2
:103A900055CF0E94000052CF83E690E0A8CF90E07F
:103AA00080E0A5CFBB274A3031F4992322F4BDE250
:103AB000909581959F4F0C945E1DBB27FB01552768
:103AC000AA27880F991FAA1FA41710F0A41B83957B
:103AD0005051B9F7A05DAA3308F0A95DA1930097F2
:103AE00079F7B111B1931192CB010C94771DDC01E0
:103AF000FC01672F71917723E1F7329704C07C9125
:103B00006D9370836291AE17BF07C8F308952F922B
:103B10003F924F925F926F927F928F929F92AF925D
:103B2000BF92CF92DF92EF92FF920F931F93CF93AA
:103B3000DF93CDB7DEB7CA1BDB0B0FB6F894DEBF41
:103B40000FBECDBF09942A88398848885F846E8467
:103B50007D848C849B84AA84B984C884DF80EE80B1
:103B6000FD800C811B81AA81B981CE0FD11D0FB6BA
:103B7000F894DEBF0FBECDBFED010895A29FB00146
:103B8000B39FC001A39F700D811D1124911DB29F91
:103B9000700D811D1124911D0895052E97FB1EF4B3
:103BA00000940E94E41D57FD07D00E94011E07FCEF
:103BB00003D04EF40C94E41D50954095309521951A
:103BC0003F4F4F4F5F4F0895909580957095619549
:103BD0007F4F8F4F9F4F0895EE0FFF1F0590F49179
:103BE000E02D09940E94BE1D332312F48A1B9B0B07
:103BF0000C94FC1D0E94BE1DB7FF0895821B930B01
:103C00000895A1E21A2EAA1BBB1BFD010DC0AA1F1D
:103C1000BB1FEE1FFF1FA217B307E407F50720F035
:103C2000A21BB30BE40BF50B661F771F881F991FB0
:103C30001A9469F760957095809590959B01AC01F9
:103C4000BD01CF0108950F931F93CF93DF9382306F
:103C5000910510F482E090E0E0914303F091440379
:103C600030E020E0B0E0A0E0309799F42115310574
:103C700009F44AC0281B390B24303105D8F58A8154
:103C80009B816115710589F1FB0193838283FE019C
:103C900011C0408151810281138148175907E0F01A
:103CA0004817590799F4109761F012960C931297E0
:103CB00013961C933296CF01DF91CF911F910F91F4
:103CC00008950093430310934403F4CF2115310565
:103CD00051F04217530738F0A901DB019A01BD01E9
:103CE000DF01F801C1CFEF01F9CF90934403809336
:103CF0004303CDCFFE01E20FF31F81939193225036
:103D0000310939832883D7CF209141033091420371
:103D1000232B41F420915D0130915E0130934203E9
:103D20002093410320915B0130915C012115310505
:103D300041F42DB73EB740915F0150916001241BC3
:103D4000350BE0914103F0914203E217F307A0F431
:103D50002E1B3F0B2817390778F0AC014E5F5F4FE1
:103D60002417350748F04E0F5F1F509342034093CE
:103D70004103819391939FCFF0E0E0E09CCFCF93FC
:103D8000DF930097E9F0FC01329713821282A09131
:103D90004303B0914403ED0130E020E01097A1F41B
:103DA00020813181820F931F209141033091420382
:103DB0002817390709F061C0F0934203E0934103EB
:103DC000DF91CF910895EA01CE17DF07E8F54A8128
:103DD0005B819E0141155105B1F7E901FB83EA833F
:103DE00049915991C40FD51FEC17FD0761F48081EB
:103DF00091810296840F951FE901998388838281BE
:103E000093819B838A83F0E0E0E012968D919C91F0
:103E100013970097B9F52D913C911197CD0102961A
:103E2000820F931F209141033091420328173907D5
:103E300039F6309751F51092440310924303B09332
:103E40004203A0934103BCCFD383C28340815181FD
:103E5000840F951FC817D90761F44E5F5F4F8881A3
:103E60009981480F591F518340838A819B81938395
:103E700082832115310509F0B0CFF0934403E0931C
:103E800043039ECFFD01DC01C0CF13821282D7CF46
:103E9000B0E0A0E0EEE4FFE10C94891D8C010097F6
:103EA00051F4CB010E94231E8C01C801CDB7DEB7AF
:103EB000E0E10C94A51DFC01E60FF71F9C012250C8
:103EC0003109E217F30708F49DC0D901CD91DC91C7
:103ED0001197C617D70798F0C530D10530F3CE013A
:103EE00004978617970708F3C61BD70B2297C19331
:103EF000D1936D937C93CF010E94BF1ED6CF5B01FF
:103F0000AC1ABD0A4C018C0E9D1EA0914303B091CA
:103F10004403512C412CF12CE12C109731F5809168
:103F20004103909142038815990509F05CC046163B
:103F3000570608F058C080915B0190915C01009792
:103F400041F48DB79EB740915F0150916001841B91
:103F5000950BE817F90708F055C0F0934203E0937A
:103F60004103F90171836083A0CF8D919C911197DA
:103F700012966C90129713967C901397A815B9051A
:103F800059F56C0142E0C40ED11CCA14DB0420F1C7
:103F9000AC014A195B09DA011296159780F062822A
:103FA000738251834083D9016D937C93E114F104B2
:103FB00071F0D7011396FC93EE93129776CF229669
:103FC0008C0F9D1FF90191838083F301EFCFF09354
:103FD0004403E093430369CF4816590608F42C01C3
:103FE0007D01D3019ACFCB010E94231E7C01009753
:103FF00049F0AE01B8010E940A20C8010E94BF1E0C
:10400000870153CF10E000E050CF81E090E0F894BA
:104010000C941A20FB01DC0102C001900D9241506A
:104020005040D8F70895FB01DC0101900D9200206B
:08403000E1F70895F894FFCFB9
:10403800AE05AE0532000126C70000C6B600000076
:104048000000000000000005A600000000000000BD
:10405800000000E4840000000000000000000024CC
:10406800740000000000000000000063630000000E
:1040780000000000000000A24A000000000000004C
:1040880000000026C700000300050000004503806B
:104098000000000000B903AF055A0306048B03694A
:1040A800037D03000000009D11AF05F714F614ED21
:1040B80007800B4E0BE50A640AA50A4914340D99CA
:1040C8000CD0078209F30971094613CE126F1283C7
:1040D800156E070D0A005B526F746172792044698E
:1040E800725D00522E436F756E743A003C2D204568
:1040F8004E434452003C2D204241434B003C2D206E
:06410800434F4E4600008B
:00000001FF
